{
  "address": "0x388Fc2319f41cE4Bd2FF7F36Af6a6F5736b8086d",
  "abi": [
    {
      "inputs": [
        {
          "internalType": "address",
          "name": "_lzEndpoint",
          "type": "address"
        },
        {
          "internalType": "address",
          "name": "_rewardToken",
          "type": "address"
        }
      ],
      "stateMutability": "nonpayable",
      "type": "constructor"
    },
    {
      "inputs": [],
      "name": "InvalidDelegate",
      "type": "error"
    },
    {
      "inputs": [],
      "name": "InvalidEndpointCall",
      "type": "error"
    },
    {
      "inputs": [
        {
          "internalType": "bytes",
          "name": "options",
          "type": "bytes"
        }
      ],
      "name": "InvalidOptions",
      "type": "error"
    },
    {
      "inputs": [],
      "name": "LzTokenUnavailable",
      "type": "error"
    },
    {
      "inputs": [
        {
          "internalType": "uint32",
          "name": "eid",
          "type": "uint32"
        }
      ],
      "name": "NoPeer",
      "type": "error"
    },
    {
      "inputs": [
        {
          "internalType": "address",
          "name": "sender",
          "type": "address"
        },
        {
          "internalType": "uint256",
          "name": "tokenId",
          "type": "uint256"
        }
      ],
      "name": "NotApprovedOrOwner",
      "type": "error"
    },
    {
      "inputs": [
        {
          "internalType": "uint256",
          "name": "msgValue",
          "type": "uint256"
        }
      ],
      "name": "NotEnoughNative",
      "type": "error"
    },
    {
      "inputs": [
        {
          "internalType": "address",
          "name": "addr",
          "type": "address"
        }
      ],
      "name": "OnlyEndpoint",
      "type": "error"
    },
    {
      "inputs": [
        {
          "internalType": "uint32",
          "name": "eid",
          "type": "uint32"
        },
        {
          "internalType": "bytes32",
          "name": "sender",
          "type": "bytes32"
        }
      ],
      "name": "OnlyPeer",
      "type": "error"
    },
    {
      "anonymous": false,
      "inputs": [
        {
          "indexed": true,
          "internalType": "address",
          "name": "owner",
          "type": "address"
        },
        {
          "indexed": true,
          "internalType": "address",
          "name": "approved",
          "type": "address"
        },
        {
          "indexed": true,
          "internalType": "uint256",
          "name": "tokenId",
          "type": "uint256"
        }
      ],
      "name": "Approval",
      "type": "event"
    },
    {
      "anonymous": false,
      "inputs": [
        {
          "indexed": true,
          "internalType": "address",
          "name": "owner",
          "type": "address"
        },
        {
          "indexed": true,
          "internalType": "address",
          "name": "operator",
          "type": "address"
        },
        {
          "indexed": false,
          "internalType": "bool",
          "name": "approved",
          "type": "bool"
        }
      ],
      "name": "ApprovalForAll",
      "type": "event"
    },
    {
      "anonymous": false,
      "inputs": [
        {
          "components": [
            {
              "internalType": "uint32",
              "name": "eid",
              "type": "uint32"
            },
            {
              "internalType": "uint16",
              "name": "msgType",
              "type": "uint16"
            },
            {
              "internalType": "bytes",
              "name": "options",
              "type": "bytes"
            }
          ],
          "indexed": false,
          "internalType": "struct EnforcedOptionParam[]",
          "name": "_enforcedOptions",
          "type": "tuple[]"
        }
      ],
      "name": "EnforcedOptionSet",
      "type": "event"
    },
    {
      "anonymous": false,
      "inputs": [
        {
          "indexed": true,
          "internalType": "address",
          "name": "previousOwner",
          "type": "address"
        },
        {
          "indexed": true,
          "internalType": "address",
          "name": "newOwner",
          "type": "address"
        }
      ],
      "name": "OwnershipTransferred",
      "type": "event"
    },
    {
      "anonymous": false,
      "inputs": [
        {
          "indexed": false,
          "internalType": "uint32",
          "name": "eid",
          "type": "uint32"
        },
        {
          "indexed": false,
          "internalType": "bytes32",
          "name": "peer",
          "type": "bytes32"
        }
      ],
      "name": "PeerSet",
      "type": "event"
    },
    {
      "anonymous": false,
      "inputs": [
        {
          "indexed": true,
          "internalType": "address",
          "name": "staker",
          "type": "address"
        },
        {
          "indexed": false,
          "internalType": "uint256",
          "name": "rewardAmount",
          "type": "uint256"
        }
      ],
      "name": "RewardsClaimed",
      "type": "event"
    },
    {
      "anonymous": false,
      "inputs": [
        {
          "indexed": true,
          "internalType": "address",
          "name": "staker",
          "type": "address"
        },
        {
          "indexed": true,
          "internalType": "uint256[]",
          "name": "tokenIds",
          "type": "uint256[]"
        }
      ],
      "name": "TokensStaked",
      "type": "event"
    },
    {
      "anonymous": false,
      "inputs": [
        {
          "indexed": true,
          "internalType": "address",
          "name": "staker",
          "type": "address"
        },
        {
          "indexed": true,
          "internalType": "uint256[]",
          "name": "tokenIds",
          "type": "uint256[]"
        }
      ],
      "name": "TokensWithdrawn",
      "type": "event"
    },
    {
      "anonymous": false,
      "inputs": [
        {
          "indexed": true,
          "internalType": "address",
          "name": "from",
          "type": "address"
        },
        {
          "indexed": true,
          "internalType": "address",
          "name": "to",
          "type": "address"
        },
        {
          "indexed": true,
          "internalType": "uint256",
          "name": "tokenId",
          "type": "uint256"
        }
      ],
      "name": "Transfer",
      "type": "event"
    },
    {
      "anonymous": false,
      "inputs": [
        {
          "indexed": false,
          "internalType": "uint256",
          "name": "oldRewardsPerUnitTime",
          "type": "uint256"
        },
        {
          "indexed": false,
          "internalType": "uint256",
          "name": "newRewardsPerUnitTime",
          "type": "uint256"
        }
      ],
      "name": "UpdatedRewardsPerUnitTime",
      "type": "event"
    },
    {
      "anonymous": false,
      "inputs": [
        {
          "indexed": false,
          "internalType": "uint256",
          "name": "oldTimeUnit",
          "type": "uint256"
        },
        {
          "indexed": false,
          "internalType": "uint256",
          "name": "newTimeUnit",
          "type": "uint256"
        }
      ],
      "name": "UpdatedTimeUnit",
      "type": "event"
    },
    {
      "inputs": [],
      "name": "BRIDGE",
      "outputs": [
        {
          "internalType": "uint16",
          "name": "",
          "type": "uint16"
        }
      ],
      "stateMutability": "view",
      "type": "function"
    },
    {
      "inputs": [],
      "name": "REWARD_TOKEN",
      "outputs": [
        {
          "internalType": "address",
          "name": "",
          "type": "address"
        }
      ],
      "stateMutability": "view",
      "type": "function"
    },
    {
      "inputs": [],
      "name": "TOTAL_SUPPLY",
      "outputs": [
        {
          "internalType": "uint256",
          "name": "",
          "type": "uint256"
        }
      ],
      "stateMutability": "view",
      "type": "function"
    },
    {
      "inputs": [
        {
          "components": [
            {
              "internalType": "uint32",
              "name": "srcEid",
              "type": "uint32"
            },
            {
              "internalType": "bytes32",
              "name": "sender",
              "type": "bytes32"
            },
            {
              "internalType": "uint64",
              "name": "nonce",
              "type": "uint64"
            }
          ],
          "internalType": "struct Origin",
          "name": "origin",
          "type": "tuple"
        }
      ],
      "name": "allowInitializePath",
      "outputs": [
        {
          "internalType": "bool",
          "name": "",
          "type": "bool"
        }
      ],
      "stateMutability": "view",
      "type": "function"
    },
    {
      "inputs": [
        {
          "internalType": "address",
          "name": "to",
          "type": "address"
        },
        {
          "internalType": "uint256",
          "name": "tokenId",
          "type": "uint256"
        }
      ],
      "name": "approve",
      "outputs": [],
      "stateMutability": "nonpayable",
      "type": "function"
    },
    {
      "inputs": [
        {
          "internalType": "address",
          "name": "owner",
          "type": "address"
        }
      ],
      "name": "balanceOf",
      "outputs": [
        {
          "internalType": "uint256",
          "name": "",
          "type": "uint256"
        }
      ],
      "stateMutability": "view",
      "type": "function"
    },
    {
      "inputs": [
        {
          "internalType": "uint32",
          "name": "_dstEid",
          "type": "uint32"
        },
        {
          "internalType": "uint256",
          "name": "_tokenId",
          "type": "uint256"
        },
        {
          "internalType": "bytes",
          "name": "_extraOptions",
          "type": "bytes"
        },
        {
          "internalType": "bool",
          "name": "_payInLzToken",
          "type": "bool"
        }
      ],
      "name": "bridge",
      "outputs": [],
      "stateMutability": "payable",
      "type": "function"
    },
    {
      "inputs": [
        {
          "internalType": "uint32",
          "name": "_dstEid",
          "type": "uint32"
        },
        {
          "internalType": "uint256",
          "name": "_tokenId",
          "type": "uint256"
        },
        {
          "internalType": "address",
          "name": "_receiver",
          "type": "address"
        },
        {
          "internalType": "bytes",
          "name": "_extraOptions",
          "type": "bytes"
        },
        {
          "internalType": "bool",
          "name": "_payInLzToken",
          "type": "bool"
        }
      ],
      "name": "bridgeTo",
      "outputs": [],
      "stateMutability": "payable",
      "type": "function"
    },
    {
      "inputs": [],
      "name": "claimRewards",
      "outputs": [],
      "stateMutability": "nonpayable",
      "type": "function"
    },
    {
      "inputs": [
        {
          "internalType": "uint32",
          "name": "_eid",
          "type": "uint32"
        },
        {
          "internalType": "uint16",
          "name": "_msgType",
          "type": "uint16"
        },
        {
          "internalType": "bytes",
          "name": "_extraOptions",
          "type": "bytes"
        }
      ],
      "name": "combineOptions",
      "outputs": [
        {
          "internalType": "bytes",
          "name": "",
          "type": "bytes"
        }
      ],
      "stateMutability": "view",
      "type": "function"
    },
    {
      "inputs": [],
      "name": "composeMsgSender",
      "outputs": [
        {
          "internalType": "address",
          "name": "sender",
          "type": "address"
        }
      ],
      "stateMutability": "view",
      "type": "function"
    },
    {
      "inputs": [],
      "name": "endpoint",
      "outputs": [
        {
          "internalType": "contract ILayerZeroEndpointV2",
          "name": "",
          "type": "address"
        }
      ],
      "stateMutability": "view",
      "type": "function"
    },
    {
      "inputs": [
        {
          "internalType": "uint32",
          "name": "eid",
          "type": "uint32"
        },
        {
          "internalType": "uint16",
          "name": "msgType",
          "type": "uint16"
        }
      ],
      "name": "enforcedOptions",
      "outputs": [
        {
          "internalType": "bytes",
          "name": "enforcedOption",
          "type": "bytes"
        }
      ],
      "stateMutability": "view",
      "type": "function"
    },
    {
      "inputs": [
        {
          "internalType": "uint256",
          "name": "tokenId",
          "type": "uint256"
        }
      ],
      "name": "getApproved",
      "outputs": [
        {
          "internalType": "address",
          "name": "",
          "type": "address"
        }
      ],
      "stateMutability": "view",
      "type": "function"
    },
    {
      "inputs": [],
      "name": "getRewardTokenBalance",
      "outputs": [
        {
          "internalType": "uint256",
          "name": "",
          "type": "uint256"
        }
      ],
      "stateMutability": "view",
      "type": "function"
    },
    {
      "inputs": [],
      "name": "getRewardsPerUnitTime",
      "outputs": [
        {
          "internalType": "uint256",
          "name": "_rewardsPerUnitTime",
          "type": "uint256"
        }
      ],
      "stateMutability": "view",
      "type": "function"
    },
    {
      "inputs": [
        {
          "internalType": "address",
          "name": "_staker",
          "type": "address"
        }
      ],
      "name": "getStakeInfo",
      "outputs": [
        {
          "internalType": "uint256[]",
          "name": "_tokensStaked",
          "type": "uint256[]"
        },
        {
          "internalType": "uint256",
          "name": "_rewards",
          "type": "uint256"
        }
      ],
      "stateMutability": "view",
      "type": "function"
    },
    {
      "inputs": [],
      "name": "getTimeUnit",
      "outputs": [
        {
          "internalType": "uint256",
          "name": "_timeUnit",
          "type": "uint256"
        }
      ],
      "stateMutability": "view",
      "type": "function"
    },
    {
      "inputs": [
        {
          "internalType": "uint256",
          "name": "",
          "type": "uint256"
        }
      ],
      "name": "indexedTokens",
      "outputs": [
        {
          "internalType": "uint256",
          "name": "",
          "type": "uint256"
        }
      ],
      "stateMutability": "view",
      "type": "function"
    },
    {
      "inputs": [
        {
          "internalType": "address",
          "name": "owner",
          "type": "address"
        },
        {
          "internalType": "address",
          "name": "operator",
          "type": "address"
        }
      ],
      "name": "isApprovedForAll",
      "outputs": [
        {
          "internalType": "bool",
          "name": "",
          "type": "bool"
        }
      ],
      "stateMutability": "view",
      "type": "function"
    },
    {
      "inputs": [
        {
          "internalType": "uint256",
          "name": "",
          "type": "uint256"
        }
      ],
      "name": "isIndexed",
      "outputs": [
        {
          "internalType": "bool",
          "name": "",
          "type": "bool"
        }
      ],
      "stateMutability": "view",
      "type": "function"
    },
    {
      "inputs": [
        {
          "components": [
            {
              "internalType": "uint32",
              "name": "srcEid",
              "type": "uint32"
            },
            {
              "internalType": "bytes32",
              "name": "sender",
              "type": "bytes32"
            },
            {
              "internalType": "uint64",
              "name": "nonce",
              "type": "uint64"
            }
          ],
          "internalType": "struct Origin",
          "name": "_origin",
          "type": "tuple"
        },
        {
          "internalType": "bytes32",
          "name": "_guid",
          "type": "bytes32"
        },
        {
          "internalType": "bytes",
          "name": "_message",
          "type": "bytes"
        },
        {
          "internalType": "address",
          "name": "_executor",
          "type": "address"
        },
        {
          "internalType": "bytes",
          "name": "_extraData",
          "type": "bytes"
        }
      ],
      "name": "lzReceive",
      "outputs": [],
      "stateMutability": "payable",
      "type": "function"
    },
    {
      "inputs": [],
      "name": "name",
      "outputs": [
        {
          "internalType": "string",
          "name": "",
          "type": "string"
        }
      ],
      "stateMutability": "view",
      "type": "function"
    },
    {
      "inputs": [
        {
          "internalType": "uint32",
          "name": "",
          "type": "uint32"
        },
        {
          "internalType": "bytes32",
          "name": "",
          "type": "bytes32"
        }
      ],
      "name": "nextNonce",
      "outputs": [
        {
          "internalType": "uint64",
          "name": "nonce",
          "type": "uint64"
        }
      ],
      "stateMutability": "view",
      "type": "function"
    },
    {
      "inputs": [],
      "name": "oAppVersion",
      "outputs": [
        {
          "internalType": "uint64",
          "name": "senderVersion",
          "type": "uint64"
        },
        {
          "internalType": "uint64",
          "name": "receiverVersion",
          "type": "uint64"
        }
      ],
      "stateMutability": "pure",
      "type": "function"
    },
    {
      "inputs": [
        {
          "internalType": "address",
          "name": "",
          "type": "address"
        },
        {
          "internalType": "address",
          "name": "",
          "type": "address"
        },
        {
          "internalType": "uint256",
          "name": "",
          "type": "uint256"
        },
        {
          "internalType": "bytes",
          "name": "",
          "type": "bytes"
        }
      ],
      "name": "onERC721Received",
      "outputs": [
        {
          "internalType": "bytes4",
          "name": "",
          "type": "bytes4"
        }
      ],
      "stateMutability": "pure",
      "type": "function"
    },
    {
      "inputs": [],
      "name": "owner",
      "outputs": [
        {
          "internalType": "address",
          "name": "",
          "type": "address"
        }
      ],
      "stateMutability": "view",
      "type": "function"
    },
    {
      "inputs": [
        {
          "internalType": "uint256",
          "name": "tokenId",
          "type": "uint256"
        }
      ],
      "name": "ownerOf",
      "outputs": [
        {
          "internalType": "address",
          "name": "",
          "type": "address"
        }
      ],
      "stateMutability": "view",
      "type": "function"
    },
    {
      "inputs": [
        {
          "internalType": "uint32",
          "name": "eid",
          "type": "uint32"
        }
      ],
      "name": "peers",
      "outputs": [
        {
          "internalType": "bytes32",
          "name": "peer",
          "type": "bytes32"
        }
      ],
      "stateMutability": "view",
      "type": "function"
    },
    {
      "inputs": [
        {
          "internalType": "uint32",
          "name": "_dstEid",
          "type": "uint32"
        },
        {
          "internalType": "uint256",
          "name": "_tokenId",
          "type": "uint256"
        },
        {
          "internalType": "address",
          "name": "_receiver",
          "type": "address"
        },
        {
          "internalType": "bytes",
          "name": "_extraOptions",
          "type": "bytes"
        },
        {
          "internalType": "bool",
          "name": "_payInLzToken",
          "type": "bool"
        }
      ],
      "name": "quote",
      "outputs": [
        {
          "components": [
            {
              "internalType": "uint256",
              "name": "nativeFee",
              "type": "uint256"
            },
            {
              "internalType": "uint256",
              "name": "lzTokenFee",
              "type": "uint256"
            }
          ],
          "internalType": "struct MessagingFee",
          "name": "fee",
          "type": "tuple"
        }
      ],
      "stateMutability": "view",
      "type": "function"
    },
    {
      "inputs": [],
      "name": "renounceOwnership",
      "outputs": [],
      "stateMutability": "nonpayable",
      "type": "function"
    },
    {
      "inputs": [
        {
          "internalType": "address",
          "name": "from",
          "type": "address"
        },
        {
          "internalType": "address",
          "name": "to",
          "type": "address"
        },
        {
          "internalType": "uint256",
          "name": "tokenId",
          "type": "uint256"
        }
      ],
      "name": "safeTransferFrom",
      "outputs": [],
      "stateMutability": "nonpayable",
      "type": "function"
    },
    {
      "inputs": [
        {
          "internalType": "address",
          "name": "from",
          "type": "address"
        },
        {
          "internalType": "address",
          "name": "to",
          "type": "address"
        },
        {
          "internalType": "uint256",
          "name": "tokenId",
          "type": "uint256"
        },
        {
          "internalType": "bytes",
          "name": "data",
          "type": "bytes"
        }
      ],
      "name": "safeTransferFrom",
      "outputs": [],
      "stateMutability": "nonpayable",
      "type": "function"
    },
    {
      "inputs": [
        {
          "internalType": "address",
          "name": "operator",
          "type": "address"
        },
        {
          "internalType": "bool",
          "name": "approved",
          "type": "bool"
        }
      ],
      "name": "setApprovalForAll",
      "outputs": [],
      "stateMutability": "nonpayable",
      "type": "function"
    },
    {
      "inputs": [
        {
          "internalType": "address",
          "name": "_delegate",
          "type": "address"
        }
      ],
      "name": "setDelegate",
      "outputs": [],
      "stateMutability": "nonpayable",
      "type": "function"
    },
    {
      "inputs": [
        {
          "components": [
            {
              "internalType": "uint32",
              "name": "eid",
              "type": "uint32"
            },
            {
              "internalType": "uint16",
              "name": "msgType",
              "type": "uint16"
            },
            {
              "internalType": "bytes",
              "name": "options",
              "type": "bytes"
            }
          ],
          "internalType": "struct EnforcedOptionParam[]",
          "name": "_enforcedOptions",
          "type": "tuple[]"
        }
      ],
      "name": "setEnforcedOptions",
      "outputs": [],
      "stateMutability": "nonpayable",
      "type": "function"
    },
    {
      "inputs": [
        {
          "internalType": "uint32",
          "name": "_eid",
          "type": "uint32"
        },
        {
          "internalType": "bytes32",
          "name": "_peer",
          "type": "bytes32"
        }
      ],
      "name": "setPeer",
      "outputs": [],
      "stateMutability": "nonpayable",
      "type": "function"
    },
    {
      "inputs": [
        {
          "internalType": "uint256",
          "name": "_rewardsPerUnitTime",
          "type": "uint256"
        }
      ],
      "name": "setRewardsPerUnitTime",
      "outputs": [],
      "stateMutability": "nonpayable",
      "type": "function"
    },
    {
      "inputs": [
        {
          "internalType": "uint256",
          "name": "_timeUnit",
          "type": "uint256"
        }
      ],
      "name": "setTimeUnit",
      "outputs": [],
      "stateMutability": "nonpayable",
      "type": "function"
    },
    {
      "inputs": [
        {
          "internalType": "uint256[]",
          "name": "_tokenIds",
          "type": "uint256[]"
        }
      ],
      "name": "stake",
      "outputs": [],
      "stateMutability": "nonpayable",
      "type": "function"
    },
    {
      "inputs": [
        {
          "internalType": "uint256",
          "name": "",
          "type": "uint256"
        }
      ],
      "name": "stakerAddress",
      "outputs": [
        {
          "internalType": "address",
          "name": "",
          "type": "address"
        }
      ],
      "stateMutability": "view",
      "type": "function"
    },
    {
      "inputs": [
        {
          "internalType": "address",
          "name": "",
          "type": "address"
        }
      ],
      "name": "stakers",
      "outputs": [
        {
          "internalType": "uint64",
          "name": "amountStaked",
          "type": "uint64"
        },
        {
          "internalType": "uint64",
          "name": "conditionIdOflastUpdate",
          "type": "uint64"
        },
        {
          "internalType": "uint128",
          "name": "timeOfLastUpdate",
          "type": "uint128"
        },
        {
          "internalType": "uint256",
          "name": "unclaimedRewards",
          "type": "uint256"
        }
      ],
      "stateMutability": "view",
      "type": "function"
    },
    {
      "inputs": [
        {
          "internalType": "uint256",
          "name": "",
          "type": "uint256"
        }
      ],
      "name": "stakersArray",
      "outputs": [
        {
          "internalType": "address",
          "name": "",
          "type": "address"
        }
      ],
      "stateMutability": "view",
      "type": "function"
    },
    {
      "inputs": [],
      "name": "stakingToken",
      "outputs": [
        {
          "internalType": "address",
          "name": "",
          "type": "address"
        }
      ],
      "stateMutability": "view",
      "type": "function"
    },
    {
      "inputs": [
        {
          "internalType": "bytes4",
          "name": "interfaceId",
          "type": "bytes4"
        }
      ],
      "name": "supportsInterface",
      "outputs": [
        {
          "internalType": "bool",
          "name": "",
          "type": "bool"
        }
      ],
      "stateMutability": "view",
      "type": "function"
    },
    {
      "inputs": [],
      "name": "symbol",
      "outputs": [
        {
          "internalType": "string",
          "name": "",
          "type": "string"
        }
      ],
      "stateMutability": "view",
      "type": "function"
    },
    {
      "inputs": [
        {
          "internalType": "uint256",
          "name": "tokenId",
          "type": "uint256"
        }
      ],
      "name": "tokenURI",
      "outputs": [
        {
          "internalType": "string",
          "name": "",
          "type": "string"
        }
      ],
      "stateMutability": "view",
      "type": "function"
    },
    {
      "inputs": [
        {
          "internalType": "address",
          "name": "from",
          "type": "address"
        },
        {
          "internalType": "address",
          "name": "to",
          "type": "address"
        },
        {
          "internalType": "uint256",
          "name": "tokenId",
          "type": "uint256"
        }
      ],
      "name": "transferFrom",
      "outputs": [],
      "stateMutability": "nonpayable",
      "type": "function"
    },
    {
      "inputs": [
        {
          "internalType": "address",
          "name": "newOwner",
          "type": "address"
        }
      ],
      "name": "transferOwnership",
      "outputs": [],
      "stateMutability": "nonpayable",
      "type": "function"
    },
    {
      "inputs": [
        {
          "internalType": "address",
          "name": "_owner",
          "type": "address"
        }
      ],
      "name": "walletOfOwner",
      "outputs": [
        {
          "internalType": "uint256[]",
          "name": "",
          "type": "uint256[]"
        }
      ],
      "stateMutability": "view",
      "type": "function"
    },
    {
      "inputs": [
        {
          "internalType": "uint256[]",
          "name": "_tokenIds",
          "type": "uint256[]"
        }
      ],
      "name": "withdraw",
      "outputs": [],
      "stateMutability": "nonpayable",
      "type": "function"
    }
  ],
  "transactionHash": "0x3ef82dc5da8b1df44c8d1ae3ccc9bf9b94e9eda8ef6b7f639f5cef1a9851a25b",
  "args": [
    "0x6edce65403992e310a62460808c4b910d972f10f",
    "0x8389E09E614AE6594A90d6987d82c5fa82a731e4"
  ],
  "numDeployments": 1,
  "solcInputHash": "5a5c3777262d353b0f5a28db8fa65e1e",
  "bytecode": "0x60e06040526007805460ff191660011790553480156200001e57600080fd5b50604051620062bc380380620062bc83398101604081905262000041916200035d565b8133818130604051806040016040528060048152602001634b696e6760e01b815250604051806040016040528060048152602001634b494e4760e01b815250816000908162000091919062000439565b506001620000a0828262000439565b50506001600655506001600160a01b038116620001045760405162461bcd60e51b815260206004820152601460248201527f636f6c6c656374696f6e2061646472657373203000000000000000000000000060448201526064015b60405180910390fd5b6001600160a01b03166080526200011b33620001d9565b6001600160a01b0380831660a05281166200014957604051632d618d8160e21b815260040160405180910390fd5b60a05160405163ca5eb5e160e01b81526001600160a01b0383811660048301529091169063ca5eb5e190602401600060405180830381600087803b1580156200019157600080fd5b505af1158015620001a6573d6000803e3d6000fd5b5050506001600160a01b03861660c05250620001d19350600592506509184e72a0009150506200022b565b505062000561565b600e80546001600160a01b038381166001600160a01b0319831681179093556040519116919082907f8be0079c531659141344cd1fd0a4f28419497f9722a3daafe3b4186f6b6457e090600090a35050565b816000036200027d5760405162461bcd60e51b815260206004820152601460248201527f74696d652d756e69742063616e277420626520300000000000000000000000006044820152606401620000fb565b6007805461010090046001600160401b03169060019081620002a081856200051b565b82546001600160401b039182166101009390930a92830291909202199091161790555060408051608081018252848152602080820185815242838501908152600060608501818152878252600d909452949094209251835551600183015591516002820155905160039091015580156200033b5742600d60006200032660018562000545565b81526020810191909152604001600020600301555b505050565b80516001600160a01b03811681146200035857600080fd5b919050565b600080604083850312156200037157600080fd5b6200037c8362000340565b91506200038c6020840162000340565b90509250929050565b634e487b7160e01b600052604160045260246000fd5b600181811c90821680620003c057607f821691505b602082108103620003e157634e487b7160e01b600052602260045260246000fd5b50919050565b601f8211156200033b57600081815260208120601f850160051c81016020861015620004105750805b601f850160051c820191505b8181101562000431578281556001016200041c565b505050505050565b81516001600160401b0381111562000455576200045562000395565b6200046d81620004668454620003ab565b84620003e7565b602080601f831160018114620004a557600084156200048c5750858301515b600019600386901b1c1916600185901b17855562000431565b600085815260208120601f198616915b82811015620004d657888601518255948401946001909101908401620004b5565b5085821015620004f55787850151600019600388901b60f8161c191681555b5050505050600190811b01905550565b634e487b7160e01b600052601160045260246000fd5b6001600160401b038181168382160190808211156200053e576200053e62000505565b5092915050565b818103818111156200055b576200055b62000505565b92915050565b60805160a05160c051615ce5620005d7600039600081816108e1015281816118ef01526141c901526000818161060b01528181610f7b0152818161212601528181613b8e01528181614341015281816147a3015261488d0152600081816106c7015281816124e201526133410152615ce56000f3fe6080604052600436106103345760003560e01c80637d25a05e116101b0578063b98bd070116100ec578063cf2a018d11610095578063ee9a31a21161006f578063ee9a31a214610ad7578063f2fde38b14610aff578063fd48ba1714610b1f578063ff7bd03d14610b4f57600080fd5b8063cf2a018d14610a31578063d68124c714610a6c578063e985e9c514610a8157600080fd5b8063c3453153116100c6578063c3453153146109c3578063c87b56dd146109f1578063ca5eb5e114610a1157600080fd5b8063b98bd07014610956578063bb0b6a5314610976578063bc70b354146109a357600080fd5b806395d89b411161015957806399248ea71161013357806399248ea7146108cf578063a22cb46514610903578063b88d4fde14610923578063b92d0eff1461094357600080fd5b806395d89b411461087a578063961004d31461088f578063983d95ce146108af57600080fd5b80639168ae721161018a5780639168ae721461076657806393ce534314610822578063940670451461083757600080fd5b80637d25a05e146106e95780638da5cb5b14610725578063902d55a51461075057600080fd5b8063372500ab1161027f5780635e280f1111610228578063664321da11610202578063664321da1461066d57806370a0823114610680578063715018a6146106a057806372f702f3146106b557600080fd5b80635e280f11146105f95780636352211e1461062d5780636360106f1461064d57600080fd5b80635357e916116102595780635357e916146105a65780635535d461146105c65780635be1d969146105e657600080fd5b8063372500ab1461054457806342842e0e14610559578063438b63001461057957600080fd5b806313137d65116102e157806323b872dd116102bb57806323b872dd146104e457806323ef2580146105045780633400288b1461052457600080fd5b806313137d651461043a578063150b7a021461044d57806317442b70146104c357600080fd5b8063095ea7b311610312578063095ea7b3146103d55780630e8b229b146103f75780630fbf0a931461041a57600080fd5b806301ffc9a71461033957806306fdde031461036e578063081812fc14610390575b600080fd5b34801561034557600080fd5b50610359610354366004614bff565b610b6f565b60405190151581526020015b60405180910390f35b34801561037a57600080fd5b50610383610c54565b6040516103659190614c8a565b34801561039c57600080fd5b506103b06103ab366004614c9d565b610ce6565b60405173ffffffffffffffffffffffffffffffffffffffff9091168152602001610365565b3480156103e157600080fd5b506103f56103f0366004614cd8565b610d1a565b005b34801561040357600080fd5b5061040c610eab565b604051908152602001610365565b34801561042657600080fd5b506103f5610435366004614d49565b610ef5565b6103f5610448366004614de5565b610f79565b34801561045957600080fd5b50610492610468366004614e85565b7f150b7a020000000000000000000000000000000000000000000000000000000095945050505050565b6040517fffffffff000000000000000000000000000000000000000000000000000000009091168152602001610365565b3480156104cf57600080fd5b50604080516001808252602082015201610365565b3480156104f057600080fd5b506103f56104ff366004614ef8565b611073565b34801561051057600080fd5b506103f561051f366004614c9d565b611114565b34801561053057600080fd5b506103f561053f366004614f4d565b6112ad565b34801561055057600080fd5b506103f5611303565b34801561056557600080fd5b506103f5610574366004614ef8565b611383565b34801561058557600080fd5b50610599610594366004614f69565b61139e565b6040516103659190614fc1565b3480156105b257600080fd5b506103b06105c1366004614c9d565b6114aa565b3480156105d257600080fd5b506103836105e1366004614fe6565b6114e1565b6103f56105f4366004615027565b611586565b34801561060557600080fd5b506103b07f000000000000000000000000000000000000000000000000000000000000000081565b34801561063957600080fd5b506103b0610648366004614c9d565b6115a3565b34801561065957600080fd5b506103f5610668366004614c9d565b61162f565b6103f561067b366004615099565b6117c6565b34801561068c57600080fd5b5061040c61069b366004614f69565b6117dc565b3480156106ac57600080fd5b506103f56118aa565b3480156106c157600080fd5b506103b07f000000000000000000000000000000000000000000000000000000000000000081565b3480156106f557600080fd5b5061070c610704366004614f4d565b600092915050565b60405167ffffffffffffffff9091168152602001610365565b34801561073157600080fd5b50600e5473ffffffffffffffffffffffffffffffffffffffff166103b0565b34801561075c57600080fd5b5061040c61115c81565b34801561077257600080fd5b506107df610781366004614f69565b600b602052600090815260409020805460019091015467ffffffffffffffff80831692680100000000000000008104909116917001000000000000000000000000000000009091046fffffffffffffffffffffffffffffffff169084565b6040805167ffffffffffffffff95861681529490931660208501526fffffffffffffffffffffffffffffffff909116918301919091526060820152608001610365565b34801561082e57600080fd5b5061040c6118be565b34801561084357600080fd5b506103b0610852366004614c9d565b600c6020526000908152604090205473ffffffffffffffffffffffffffffffffffffffff1681565b34801561088657600080fd5b50610383611974565b34801561089b57600080fd5b5061040c6108aa366004614c9d565b611983565b3480156108bb57600080fd5b506103f56108ca366004614d49565b6119a4565b3480156108db57600080fd5b506103b07f000000000000000000000000000000000000000000000000000000000000000081565b34801561090f57600080fd5b506103f561091e36600461511c565b611a1f565b34801561092f57600080fd5b506103f561093e3660046151d3565b611a2e565b34801561094f57600080fd5b50306103b0565b34801561096257600080fd5b506103f5610971366004614d49565b611ad6565b34801561098257600080fd5b5061040c6109913660046152b5565b600f6020526000908152604090205481565b3480156109af57600080fd5b506103836109be3660046152d0565b611c41565b3480156109cf57600080fd5b506109e36109de366004614f69565b611dd5565b604051610365929190615331565b3480156109fd57600080fd5b50610383610a0c366004614c9d565b612040565b348015610a1d57600080fd5b506103f5610a2c366004614f69565b6120d9565b348015610a3d57600080fd5b50610a51610a4c366004615099565b61217e565b60408051825181526020928301519281019290925201610365565b348015610a7857600080fd5b5061040c6121f9565b348015610a8d57600080fd5b50610359610a9c366004615353565b73ffffffffffffffffffffffffffffffffffffffff918216600090815260056020908152604080832093909416825291909152205460ff1690565b348015610ae357600080fd5b50610aec600181565b60405161ffff9091168152602001610365565b348015610b0b57600080fd5b506103f5610b1a366004614f69565b612243565b348015610b2b57600080fd5b50610359610b3a366004614c9d565b600a6020526000908152604090205460ff1681565b348015610b5b57600080fd5b50610359610b6a366004615381565b6122fa565b60007fffffffff0000000000000000000000000000000000000000000000000000000082167f80ac58cd000000000000000000000000000000000000000000000000000000001480610c0257507fffffffff0000000000000000000000000000000000000000000000000000000082167f5b5e139f00000000000000000000000000000000000000000000000000000000145b80610c4e57507f01ffc9a7000000000000000000000000000000000000000000000000000000007fffffffff000000000000000000000000000000000000000000000000000000008316145b92915050565b606060008054610c639061539d565b80601f0160208091040260200160405190810160405280929190818152602001828054610c8f9061539d565b8015610cdc5780601f10610cb157610100808354040283529160200191610cdc565b820191906000526020600020905b815481529060010190602001808311610cbf57829003601f168201915b5050505050905090565b6000610cf182612330565b5060009081526004602052604090205473ffffffffffffffffffffffffffffffffffffffff1690565b6000610d25826115a3565b90508073ffffffffffffffffffffffffffffffffffffffff168373ffffffffffffffffffffffffffffffffffffffff1603610de7576040517f08c379a000000000000000000000000000000000000000000000000000000000815260206004820152602160248201527f4552433732313a20617070726f76616c20746f2063757272656e74206f776e6560448201527f720000000000000000000000000000000000000000000000000000000000000060648201526084015b60405180910390fd5b3373ffffffffffffffffffffffffffffffffffffffff82161480610e105750610e108133610a9c565b610e9c576040517f08c379a000000000000000000000000000000000000000000000000000000000815260206004820152603d60248201527f4552433732313a20617070726f76652063616c6c6572206973206e6f7420746f60448201527f6b656e206f776e6572206f7220617070726f76656420666f7220616c6c0000006064820152608401610dde565b610ea683836123bb565b505050565b6000600d60006001600760019054906101000a900467ffffffffffffffff16610ed49190615419565b67ffffffffffffffff16815260200190815260200160002060010154905090565b600260065403610f61576040517f08c379a000000000000000000000000000000000000000000000000000000000815260206004820152601f60248201527f5265656e7472616e637947756172643a207265656e7472616e742063616c6c006044820152606401610dde565b6002600655610f70828261245b565b50506001600655565b7f000000000000000000000000000000000000000000000000000000000000000073ffffffffffffffffffffffffffffffffffffffff163314610fea576040517f91ac5e4f000000000000000000000000000000000000000000000000000000008152336004820152602401610dde565b6020870180359061100490610fff908a6152b5565b612946565b1461105b5761101660208801886152b5565b6040517fc26bebcc00000000000000000000000000000000000000000000000000000000815263ffffffff909116600482015260208801356024820152604401610dde565b61106a8787878787878761299b565b50505050505050565b61107d33826129c3565b611109576040517f08c379a000000000000000000000000000000000000000000000000000000000815260206004820152602d60248201527f4552433732313a2063616c6c6572206973206e6f7420746f6b656e206f776e6560448201527f72206f7220617070726f766564000000000000000000000000000000000000006064820152608401610dde565b610ea6838383612a82565b61111c612d7d565b611182576040517f08c379a000000000000000000000000000000000000000000000000000000000815260206004820152600e60248201527f4e6f7420617574686f72697a65640000000000000000000000000000000000006044820152606401610dde565b6000600d60006001600760019054906101000a900467ffffffffffffffff166111ab9190615419565b67ffffffffffffffff168152602080820192909252604090810160002081516080810183528154815260018201549381018490526002820154928101929092526003015460608201529150820361125e576040517f08c379a000000000000000000000000000000000000000000000000000000000815260206004820152601160248201527f52657761726420756e6368616e6765642e0000000000000000000000000000006044820152606401610dde565b805161126a9083612dd1565b602080820151604080519182529181018490527f243c4656edc72b2c7ec8575d464d955b2f42c1b205960c6c2fb7eecda5419cf691015b60405180910390a15050565b6112b5612efa565b63ffffffff82166000818152600f6020908152604091829020849055815192835282018390527f238399d427b947898edb290f5ff0f9109849b1c3ba196a42e35f00c50a54b98b91016112a1565b60026006540361136f576040517f08c379a000000000000000000000000000000000000000000000000000000000815260206004820152601f60248201527f5265656e7472616e637947756172643a207265656e7472616e742063616c6c006044820152606401610dde565b600260065561137c612f7b565b6001600655565b610ea683838360405180602001604052806000815250611a2e565b606060006113ab836117dc565b90506000808267ffffffffffffffff8111156113c9576113c9615155565b6040519080825280602002602001820160405280156113f2578160200160208202803683370190505b509050826000036114155750506040805160008152602081019091529392505050565b60015b61115c81116114a1578573ffffffffffffffffffffffffffffffffffffffff16611441826115a3565b73ffffffffffffffffffffffffffffffffffffffff160361148f578082848151811061146f5761146f615441565b60209081029190910101528261148481615470565b9350508383146114a1575b61149a6001826154a8565b9050611418565b50949350505050565b600981815481106114ba57600080fd5b60009182526020909120015473ffffffffffffffffffffffffffffffffffffffff16905081565b6010602090815260009283526040808420909152908252902080546115059061539d565b80601f01602080910402602001604051908101604052809291908181526020018280546115319061539d565b801561157e5780601f106115535761010080835404028352916020019161157e565b820191906000526020600020905b81548152906001019060200180831161156157829003601f168201915b505050505081565b61159c8585611594876115a3565b868686613108565b5050505050565b60008181526002602052604081205473ffffffffffffffffffffffffffffffffffffffff1680610c4e576040517f08c379a000000000000000000000000000000000000000000000000000000000815260206004820152601860248201527f4552433732313a20696e76616c696420746f6b656e20494400000000000000006044820152606401610dde565b611637612d7d565b61169d576040517f08c379a000000000000000000000000000000000000000000000000000000000815260206004820152600e60248201527f4e6f7420617574686f72697a65640000000000000000000000000000000000006044820152606401610dde565b6000600d60006001600760019054906101000a900467ffffffffffffffff166116c69190615419565b67ffffffffffffffff168152602001908152602001600020604051806080016040529081600082015481526020016001820154815260200160028201548152602001600382015481525050905080600001518203611780576040517f08c379a000000000000000000000000000000000000000000000000000000000815260206004820152601460248201527f54696d652d756e697420756e6368616e6765642e0000000000000000000000006044820152606401610dde565b61178e828260200151612dd1565b805160408051918252602082018490527fd968de290ed68f978b9e4816f7d4be9ef46189fe8eeb3eeb86199e7229cf2de091016112a1565b6117d4868686868686613108565b505050505050565b600073ffffffffffffffffffffffffffffffffffffffff8216611881576040517f08c379a000000000000000000000000000000000000000000000000000000000815260206004820152602960248201527f4552433732313a2061646472657373207a65726f206973206e6f74206120766160448201527f6c6964206f776e657200000000000000000000000000000000000000000000006064820152608401610dde565b5073ffffffffffffffffffffffffffffffffffffffff1660009081526003602052604090205490565b6118b2612efa565b6118bc60006131cb565b565b6040517f70a082310000000000000000000000000000000000000000000000000000000081523060048201526000907f000000000000000000000000000000000000000000000000000000000000000073ffffffffffffffffffffffffffffffffffffffff16906370a0823190602401602060405180830381865afa15801561194b573d6000803e3d6000fd5b505050506040513d601f19601f8201168201806040525081019061196f91906154bb565b905090565b606060018054610c639061539d565b6008818154811061199357600080fd5b600091825260209091200154905081565b600260065403611a10576040517f08c379a000000000000000000000000000000000000000000000000000000000815260206004820152601f60248201527f5265656e7472616e637947756172643a207265656e7472616e742063616c6c006044820152606401610dde565b6002600655610f708282613242565b611a2a3383836137ec565b5050565b611a3833836129c3565b611ac4576040517f08c379a000000000000000000000000000000000000000000000000000000000815260206004820152602d60248201527f4552433732313a2063616c6c6572206973206e6f7420746f6b656e206f776e6560448201527f72206f7220617070726f766564000000000000000000000000000000000000006064820152608401610dde565b611ad084848484613919565b50505050565b611ade612efa565b60005b81811015611c0f57611b23838383818110611afe57611afe615441565b9050602002810190611b1091906154d4565b611b1e906040810190615512565b6139bc565b828282818110611b3557611b35615441565b9050602002810190611b4791906154d4565b611b55906040810190615512565b60106000868686818110611b6b57611b6b615441565b9050602002810190611b7d91906154d4565b611b8b9060208101906152b5565b63ffffffff1663ffffffff1681526020019081526020016000206000868686818110611bb957611bb9615441565b9050602002810190611bcb91906154d4565b611bdc906040810190602001615577565b61ffff168152602081019190915260400160002091611bfc9190836155d8565b5080611c0781615470565b915050611ae1565b507fbe4864a8e820971c0247f5992e2da559595f7bf076a21cb5928d443d2a13b67482826040516112a192919061573b565b63ffffffff8416600090815260106020908152604080832061ffff87168452909152812080546060929190611c759061539d565b80601f0160208091040260200160405190810160405280929190818152602001828054611ca19061539d565b8015611cee5780601f10611cc357610100808354040283529160200191611cee565b820191906000526020600020905b815481529060010190602001808311611cd157829003601f168201915b505050505090508051600003611d3e5783838080601f016020809104026020016040519081016040528093929190818152602001838380828437600092019190915250929450611dcd9350505050565b6000839003611d4e579050611dcd565b60028310611d9757611d6084846139bc565b80611d6e8460028188615879565b604051602001611d80939291906158a3565b604051602081830303815290604052915050611dcd565b83836040517f9a6d49cd000000000000000000000000000000000000000000000000000000008152600401610dde9291906158cb565b949350505050565b60606000806008805480602002602001604051908101604052809291908181526020018280548015611e2657602002820191906000526020600020905b815481526020019060010190808311611e12575b505050505090506000815167ffffffffffffffff811115611e4957611e49615155565b604051908082528060200260200182016040528015611e72578160200160208202803683370190505b5082519091506000805b82811015611f62578773ffffffffffffffffffffffffffffffffffffffff16600c6000878481518110611eb157611eb1615441565b6020026020010151815260200190815260200160002060009054906101000a900473ffffffffffffffffffffffffffffffffffffffff1673ffffffffffffffffffffffffffffffffffffffff1614848281518110611f1157611f11615441565b602002602001019015159081151581525050838181518110611f3557611f35615441565b602002602001015115611f5057611f4d6001836154a8565b91505b80611f5a81615470565b915050611e7c565b508067ffffffffffffffff811115611f7c57611f7c615155565b604051908082528060200260200182016040528015611fa5578160200160208202803683370190505b5095506000805b8381101561202a57848181518110611fc657611fc6615441565b60200260200101511561201857858181518110611fe557611fe5615441565b6020026020010151888381518110611fff57611fff615441565b60209081029190910101526120156001836154a8565b91505b8061202281615470565b915050611fac565b5061203488613a17565b95505050505050915091565b606061204b82612330565b60006120876040805180820190915260208082527f68747470733a2f2f6e66742e6f72697669756d2e696f2f6e66742f6b696e672f9082015290565b905060008151116120a757604051806020016040528060008152506120d2565b806120b184613aba565b6040516020016120c29291906158df565b6040516020818303038152906040525b9392505050565b6120e1612efa565b6040517fca5eb5e100000000000000000000000000000000000000000000000000000000815273ffffffffffffffffffffffffffffffffffffffff82811660048301527f0000000000000000000000000000000000000000000000000000000000000000169063ca5eb5e190602401600060405180830381600087803b15801561216a57600080fd5b505af115801561159c573d6000803e3d6000fd5b60408051808201909152600080825260208201526040805173ffffffffffffffffffffffffffffffffffffffff87166020820152908101879052600090606001604051602081830303815290604052905060006121de8960018888611c41565b90506121ec89838387613b78565b9998505050505050505050565b6000600d60006001600760019054906101000a900467ffffffffffffffff166122229190615419565b67ffffffffffffffff16815260200190815260200160002060000154905090565b61224b612efa565b73ffffffffffffffffffffffffffffffffffffffff81166122ee576040517f08c379a000000000000000000000000000000000000000000000000000000000815260206004820152602660248201527f4f776e61626c653a206e6577206f776e657220697320746865207a65726f206160448201527f64647265737300000000000000000000000000000000000000000000000000006064820152608401610dde565b6122f7816131cb565b50565b600060208201803590600f90839061231290866152b5565b63ffffffff1681526020810191909152604001600020541492915050565b60008181526002602052604090205473ffffffffffffffffffffffffffffffffffffffff166122f7576040517f08c379a000000000000000000000000000000000000000000000000000000000815260206004820152601860248201527f4552433732313a20696e76616c696420746f6b656e20494400000000000000006044820152606401610dde565b600081815260046020526040902080547fffffffffffffffffffffffff00000000000000000000000000000000000000001673ffffffffffffffffffffffffffffffffffffffff84169081179091558190612415826115a3565b73ffffffffffffffffffffffffffffffffffffffff167f8c5be1e5ebec7d5bd14f71427d1e84f3dd0314c0f7b2291e5b200ac8c7c3b92560405160405180910390a45050565b8067ffffffffffffffff81166000036124d0576040517f08c379a000000000000000000000000000000000000000000000000000000000815260206004820152601060248201527f5374616b696e67203020746f6b656e73000000000000000000000000000000006044820152606401610dde565b336000908152600b60205260409020547f00000000000000000000000000000000000000000000000000000000000000009067ffffffffffffffff161561251f5761251a33613c66565b612627565b6009805460018082019092557f6e1540171b6c0c960b71a7020d9f60077f6af931a8bbf590da0223dacf75c7af018054337fffffffffffffffffffffffff000000000000000000000000000000000000000090911681179091556000908152600b602052604090208054426fffffffffffffffffffffffffffffffff9081167001000000000000000000000000000000000291161790556007546125d3919067ffffffffffffffff61010090910416615419565b336000908152600b60205260409020805467ffffffffffffffff9290921668010000000000000000027fffffffffffffffffffffffffffffffff0000000000000000ffffffffffffffff9092169190911790555b60005b8267ffffffffffffffff1681101561288f57600780547fffffffffffffffffffffffffffffffffffffffffffffffffffffffffffffff0016600217905573ffffffffffffffffffffffffffffffffffffffff82166342842e0e61268a3390565b3088888681811061269d5761269d615441565b6040517fffffffff0000000000000000000000000000000000000000000000000000000060e088901b16815273ffffffffffffffffffffffffffffffffffffffff958616600482015294909316602485015250602090910201356044820152606401600060405180830381600087803b15801561271957600080fd5b505af115801561272d573d6000803e3d6000fd5b5050600780547fffffffffffffffffffffffffffffffffffffffffffffffffffffffffffffff001660011790555061276490503390565b600c600087878581811061277a5761277a615441565b90506020020135815260200190815260200160002060006101000a81548173ffffffffffffffffffffffffffffffffffffffff021916908373ffffffffffffffffffffffffffffffffffffffff160217905550600a60008686848181106127e3576127e3615441565b602090810292909201358352508101919091526040016000205460ff1661287f576001600a600087878581811061281c5761281c615441565b90506020020135815260200190815260200160002060006101000a81548160ff021916908315150217905550600885858381811061285c5761285c615441565b835460018101855560009485526020948590209190940292909201359190920155505b61288881615470565b905061262a565b50336000908152600b6020526040812080548492906128b990849067ffffffffffffffff1661590e565b92506101000a81548167ffffffffffffffff021916908367ffffffffffffffff16021790555083836040516128ef92919061592f565b60405180910390206128fe3390565b73ffffffffffffffffffffffffffffffffffffffff167f540cd34f06460fd67aeca9d19e0a56cd3a7c1cde8dc2263f265b68b2ef3495d260405160405180910390a350505050565b63ffffffff81166000908152600f602052604081205480610c4e576040517ff6ff4fb700000000000000000000000000000000000000000000000000000000815263ffffffff84166004820152602401610dde565b6000806129aa86880188614cd8565b915091506129b88282613d93565b505050505050505050565b6000806129cf836115a3565b90508073ffffffffffffffffffffffffffffffffffffffff168473ffffffffffffffffffffffffffffffffffffffff161480612a3d575073ffffffffffffffffffffffffffffffffffffffff80821660009081526005602090815260408083209388168352929052205460ff165b80611dcd57508373ffffffffffffffffffffffffffffffffffffffff16612a6384610ce6565b73ffffffffffffffffffffffffffffffffffffffff1614949350505050565b8273ffffffffffffffffffffffffffffffffffffffff16612aa2826115a3565b73ffffffffffffffffffffffffffffffffffffffff1614612b45576040517f08c379a000000000000000000000000000000000000000000000000000000000815260206004820152602560248201527f4552433732313a207472616e736665722066726f6d20696e636f72726563742060448201527f6f776e65720000000000000000000000000000000000000000000000000000006064820152608401610dde565b73ffffffffffffffffffffffffffffffffffffffff8216612be7576040517f08c379a0000000000000000000000000000000000000000000000000000000008152602060048201526024808201527f4552433732313a207472616e7366657220746f20746865207a65726f2061646460448201527f72657373000000000000000000000000000000000000000000000000000000006064820152608401610dde565b8273ffffffffffffffffffffffffffffffffffffffff16612c07826115a3565b73ffffffffffffffffffffffffffffffffffffffff1614612caa576040517f08c379a000000000000000000000000000000000000000000000000000000000815260206004820152602560248201527f4552433732313a207472616e736665722066726f6d20696e636f72726563742060448201527f6f776e65720000000000000000000000000000000000000000000000000000006064820152608401610dde565b600081815260046020908152604080832080547fffffffffffffffffffffffff000000000000000000000000000000000000000090811690915573ffffffffffffffffffffffffffffffffffffffff8781168086526003855283862080547fffffffffffffffffffffffffffffffffffffffffffffffffffffffffffffffff01905590871680865283862080546001019055868652600290945282852080549092168417909155905184937fddf252ad1be2c89b69c2b068fc378daa952ba7f163c4a11628f55a4df523b3ef91a4505050565b6000612d9e600e5473ffffffffffffffffffffffffffffffffffffffff1690565b73ffffffffffffffffffffffffffffffffffffffff163373ffffffffffffffffffffffffffffffffffffffff1614905090565b81600003612e3b576040517f08c379a000000000000000000000000000000000000000000000000000000000815260206004820152601460248201527f74696d652d756e69742063616e277420626520300000000000000000000000006044820152606401610dde565b60078054610100900467ffffffffffffffff169060019081612e5d818561590e565b825467ffffffffffffffff9182166101009390930a92830291909202199091161790555060408051608081018252848152602080820185815242838501908152600060608501818152878252600d90945294909420925183555160018301559151600282015590516003909101558015610ea65742600d6000612ee1600185615971565b8152602081019190915260400160002060030155505050565b600e5473ffffffffffffffffffffffffffffffffffffffff1633146118bc576040517f08c379a000000000000000000000000000000000000000000000000000000000815260206004820181905260248201527f4f776e61626c653a2063616c6c6572206973206e6f7420746865206f776e65726044820152606401610dde565b6000612f8633613fb8565b336000908152600b6020526040902060010154612fa391906154a8565b90508060000361300f576040517f08c379a000000000000000000000000000000000000000000000000000000000815260206004820152600a60248201527f4e6f2072657761726473000000000000000000000000000000000000000000006044820152606401610dde565b336000908152600b602052604081208054426fffffffffffffffffffffffffffffffff9081167001000000000000000000000000000000000291161781556001908101919091556007546130729190610100900467ffffffffffffffff16615419565b336000818152600b60205260409020805467ffffffffffffffff9390931668010000000000000000027fffffffffffffffffffffffffffffffff0000000000000000ffffffffffffffff909316929092179091556130d09082614177565b60405181815233907ffc30cddea38e2bf4d6ea7d3f9ed3b6ad7f176419f4963bd81318067a4aee73fe9060200160405180910390a250565b61311233866129c3565b613151576040517f24e05bd900000000000000000000000000000000000000000000000000000000815233600482015260248101869052604401610dde565b61315a85614236565b6040805173ffffffffffffffffffffffffffffffffffffffff86166020820152808201879052815180820383018152606090910190915260006131a08860018787611c41565b905060006131b089848487613b78565b90506131bf898484843361430e565b50505050505050505050565b600e805473ffffffffffffffffffffffffffffffffffffffff8381167fffffffffffffffffffffffff0000000000000000000000000000000000000000831681179093556040519116919082907f8be0079c531659141344cd1fd0a4f28419497f9722a3daafe3b4186f6b6457e090600090a35050565b336000908152600b602052604081205467ffffffffffffffff908116918391821690036132cb576040517f08c379a000000000000000000000000000000000000000000000000000000000815260206004820152601460248201527f5769746864726177696e67203020746f6b656e730000000000000000000000006044820152606401610dde565b8067ffffffffffffffff1682101561333f576040517f08c379a000000000000000000000000000000000000000000000000000000000815260206004820152601c60248201527f5769746864726177696e67206d6f7265207468616e207374616b6564000000006044820152606401610dde565b7f000000000000000000000000000000000000000000000000000000000000000061336933613c66565b8167ffffffffffffffff16830361354157600060098054806020026020016040519081016040528092919081815260200182805480156133df57602002820191906000526020600020905b815473ffffffffffffffffffffffffffffffffffffffff1681526001909101906020018083116133b4575b5050505050905060005b815181101561353e573373ffffffffffffffffffffffffffffffffffffffff1682828151811061341b5761341b615441565b602002602001015173ffffffffffffffffffffffffffffffffffffffff160361352e57816001835161344d9190615971565b8151811061345d5761345d615441565b60200260200101516009828154811061347857613478615441565b9060005260206000200160006101000a81548173ffffffffffffffffffffffffffffffffffffffff021916908373ffffffffffffffffffffffffffffffffffffffff16021790555060098054806134d1576134d1615984565b60008281526020902081017fffffffffffffffffffffffffffffffffffffffffffffffffffffffffffffffff90810180547fffffffffffffffffffffffff000000000000000000000000000000000000000016905501905561353e565b61353781615470565b90506133e9565b50505b336000908152600b60205260408120805484929061356a90849067ffffffffffffffff16615419565b92506101000a81548167ffffffffffffffff021916908367ffffffffffffffff16021790555060005b8267ffffffffffffffff168110156137835733600c60008888858181106135bc576135bc615441565b602090810292909201358352508101919091526040016000205473ffffffffffffffffffffffffffffffffffffffff1614613653576040517f08c379a000000000000000000000000000000000000000000000000000000000815260206004820152600a60248201527f4e6f74207374616b6572000000000000000000000000000000000000000000006044820152606401610dde565b6000600c600088888581811061366b5761366b615441565b6020908102929092013583525081019190915260400160002080547fffffffffffffffffffffffff00000000000000000000000000000000000000001673ffffffffffffffffffffffffffffffffffffffff92831617905582166342842e0e30338989868181106136de576136de615441565b6040517fffffffff0000000000000000000000000000000000000000000000000000000060e088901b16815273ffffffffffffffffffffffffffffffffffffffff958616600482015294909316602485015250602090910201356044820152606401600060405180830381600087803b15801561375a57600080fd5b505af115801561376e573d6000803e3d6000fd5b505050508061377c90615470565b9050613593565b50848460405161379492919061592f565b60405180910390206137a33390565b73ffffffffffffffffffffffffffffffffffffffff167f09ba0ae49142860d7eec1f3ce54722d70b60910facbe018cccb1099e4e84755c60405160405180910390a35050505050565b8173ffffffffffffffffffffffffffffffffffffffff168373ffffffffffffffffffffffffffffffffffffffff1603613881576040517f08c379a000000000000000000000000000000000000000000000000000000000815260206004820152601960248201527f4552433732313a20617070726f766520746f2063616c6c6572000000000000006044820152606401610dde565b73ffffffffffffffffffffffffffffffffffffffff83811660008181526005602090815260408083209487168084529482529182902080547fffffffffffffffffffffffffffffffffffffffffffffffffffffffffffffff001686151590811790915591519182527f17307eab39ab6107e8899845ad3d59bd9653f200f220920489ca2b5937696c31910160405180910390a3505050565b613924848484612a82565b61393084848484614426565b611ad0576040517f08c379a000000000000000000000000000000000000000000000000000000000815260206004820152603260248201527f4552433732313a207472616e7366657220746f206e6f6e20455243373231526560448201527f63656976657220696d706c656d656e74657200000000000000000000000000006064820152608401610dde565b60006139cb6002828486615879565b6139d4916159b3565b60f01c905060038114610ea65782826040517f9a6d49cd000000000000000000000000000000000000000000000000000000008152600401610dde9291906158cb565b73ffffffffffffffffffffffffffffffffffffffff81166000908152600b602052604081205467ffffffffffffffff168103613a79575073ffffffffffffffffffffffffffffffffffffffff166000908152600b602052604090206001015490565b613a8282613fb8565b73ffffffffffffffffffffffffffffffffffffffff83166000908152600b6020526040902060010154610c4e91906154a8565b919050565b60606000613ac783614616565b600101905060008167ffffffffffffffff811115613ae757613ae7615155565b6040519080825280601f01601f191660200182016040528015613b11576020820181803683370190505b5090508181016020015b7fffffffffffffffffffffffffffffffffffffffffffffffffffffffffffffffff017f3031323334353637383961626364656600000000000000000000000000000000600a86061a8153600a8504945084613b1b57509392505050565b60408051808201909152600080825260208201527f000000000000000000000000000000000000000000000000000000000000000073ffffffffffffffffffffffffffffffffffffffff1663ddc28c586040518060a001604052808863ffffffff168152602001613be889612946565b8152602001878152602001868152602001851515815250306040518363ffffffff1660e01b8152600401613c1d929190615a2a565b6040805180830381865afa158015613c39573d6000803e3d6000fd5b505050506040513d601f19601f82011682018060405250810190613c5d9190615b1d565b95945050505050565b6000613c7182613fb8565b73ffffffffffffffffffffffffffffffffffffffff83166000908152600b6020526040812060010180549293508392909190613cae9084906154a8565b909155505073ffffffffffffffffffffffffffffffffffffffff82166000908152600b6020526040902080546fffffffffffffffffffffffffffffffff428116700100000000000000000000000000000000029116179055600754613d259060019067ffffffffffffffff61010090910416615419565b73ffffffffffffffffffffffffffffffffffffffff9092166000908152600b60205260409020805467ffffffffffffffff9390931668010000000000000000027fffffffffffffffffffffffffffffffff0000000000000000ffffffffffffffff9093169290921790915550565b73ffffffffffffffffffffffffffffffffffffffff8216613e10576040517f08c379a000000000000000000000000000000000000000000000000000000000815260206004820181905260248201527f4552433732313a206d696e7420746f20746865207a65726f20616464726573736044820152606401610dde565b60008181526002602052604090205473ffffffffffffffffffffffffffffffffffffffff1615613e9c576040517f08c379a000000000000000000000000000000000000000000000000000000000815260206004820152601c60248201527f4552433732313a20746f6b656e20616c7265616479206d696e746564000000006044820152606401610dde565b60008181526002602052604090205473ffffffffffffffffffffffffffffffffffffffff1615613f28576040517f08c379a000000000000000000000000000000000000000000000000000000000815260206004820152601c60248201527f4552433732313a20746f6b656e20616c7265616479206d696e746564000000006044820152606401610dde565b73ffffffffffffffffffffffffffffffffffffffff8216600081815260036020908152604080832080546001019055848352600290915280822080547fffffffffffffffffffffffff0000000000000000000000000000000000000000168417905551839291907fddf252ad1be2c89b69c2b068fc378daa952ba7f163c4a11628f55a4df523b3ef908290a45050565b73ffffffffffffffffffffffffffffffffffffffff81166000908152600b602090815260408083208151608081018352815467ffffffffffffffff808216835268010000000000000000820481169583018690527001000000000000000000000000000000009091046fffffffffffffffffffffffffffffffff1693820193909352600190910154606082015260075490929161010090910416815b8181101561416e576000818152600d60209081526040808320815160808101835281548152600182015493810193909352600281015491830191909152600301546060820152908483036140be5785604001516fffffffffffffffffffffffffffffffff166140c4565b81604001515b9050600082606001516000036140da57426140e0565b82606001515b9050600080614117896000015167ffffffffffffffff1685856141039190615971565b61410d9190615b39565b86602001516146f8565b915091506000806141378c8860000151856141329190615b50565b614743565b915091508380156141455750815b61414f578b614151565b805b9b505050505050505060018161416791906154a8565b9050614054565b50505050919050565b6040517f23b872dd00000000000000000000000000000000000000000000000000000000815230600482015273ffffffffffffffffffffffffffffffffffffffff8381166024830152604482018390527f000000000000000000000000000000000000000000000000000000000000000016906323b872dd906064016020604051808303816000875af1158015614212573d6000803e3d6000fd5b505050506040513d601f19601f82011682018060405250810190610ea69190615b8b565b6000614241826115a3565b905061424c826115a3565b600083815260046020908152604080832080547fffffffffffffffffffffffff000000000000000000000000000000000000000090811690915573ffffffffffffffffffffffffffffffffffffffff85168085526003845282852080547fffffffffffffffffffffffffffffffffffffffffffffffffffffffffffffffff0190558785526002909352818420805490911690555192935084927fddf252ad1be2c89b69c2b068fc378daa952ba7f163c4a11628f55a4df523b3ef908390a45050565b614316614b89565b6000614325846000015161475e565b60208501519091501561433f5761433f846020015161479f565b7f000000000000000000000000000000000000000000000000000000000000000073ffffffffffffffffffffffffffffffffffffffff16632637a450826040518060a001604052808b63ffffffff16815260200161439c8c612946565b81526020018a815260200189815260200160008960200151111515815250866040518463ffffffff1660e01b81526004016143d8929190615a2a565b60806040518083038185885af11580156143f6573d6000803e3d6000fd5b50505050506040513d601f19601f8201168201806040525081019061441b9190615ba8565b979650505050505050565b600073ffffffffffffffffffffffffffffffffffffffff84163b1561460e576040517f150b7a0200000000000000000000000000000000000000000000000000000000815273ffffffffffffffffffffffffffffffffffffffff85169063150b7a029061449d903390899088908890600401615c1a565b6020604051808303816000875af19250505080156144f6575060408051601f3d9081017fffffffffffffffffffffffffffffffffffffffffffffffffffffffffffffffe01682019092526144f391810190615c63565b60015b6145c3573d808015614524576040519150601f19603f3d011682016040523d82523d6000602084013e614529565b606091505b5080516000036145bb576040517f08c379a000000000000000000000000000000000000000000000000000000000815260206004820152603260248201527f4552433732313a207472616e7366657220746f206e6f6e20455243373231526560448201527f63656976657220696d706c656d656e74657200000000000000000000000000006064820152608401610dde565b805181602001fd5b7fffffffff00000000000000000000000000000000000000000000000000000000167f150b7a0200000000000000000000000000000000000000000000000000000000149050611dcd565b506001611dcd565b6000807a184f03e93ff9f4daa797ed6e38ed64bf6a1f010000000000000000831061465f577a184f03e93ff9f4daa797ed6e38ed64bf6a1f010000000000000000830492506040015b6d04ee2d6d415b85acef8100000000831061468b576d04ee2d6d415b85acef8100000000830492506020015b662386f26fc1000083106146a957662386f26fc10000830492506010015b6305f5e10083106146c1576305f5e100830492506008015b61271083106146d557612710830492506004015b606483106146e7576064830492506002015b600a8310610c4e5760010192915050565b6000808360000361470f575060019050600061473c565b83830283858281614722576147226159fb565b041461473557600080925092505061473c565b6001925090505b9250929050565b6000808383018481101561473557600080925092505061473c565b600081341461479b576040517f9f704120000000000000000000000000000000000000000000000000000000008152346004820152602401610dde565b5090565b60007f000000000000000000000000000000000000000000000000000000000000000073ffffffffffffffffffffffffffffffffffffffff1663e4fe1d946040518163ffffffff1660e01b8152600401602060405180830381865afa15801561480c573d6000803e3d6000fd5b505050506040513d601f19601f820116820180604052508101906148309190615c80565b905073ffffffffffffffffffffffffffffffffffffffff811661487f576040517f5373352a00000000000000000000000000000000000000000000000000000000815260040160405180910390fd5b6040805133602482018190527f000000000000000000000000000000000000000000000000000000000000000073ffffffffffffffffffffffffffffffffffffffff818116604485015260648085018890528551808603909101815260849094018552602080850180517bffffffffffffffffffffffffffffffffffffffffffffffffffffffff167f23b872dd0000000000000000000000000000000000000000000000000000000017905285518087019096528086527f5361666545524332303a206c6f772d6c6576656c2063616c6c206661696c656490860152611a2a94908616938791611ad091869160009061497b9084908490614a28565b905080516000148061499c57508080602001905181019061499c9190615b8b565b610ea6576040517f08c379a000000000000000000000000000000000000000000000000000000000815260206004820152602a60248201527f5361666545524332303a204552433230206f7065726174696f6e20646964206e60448201527f6f742073756363656564000000000000000000000000000000000000000000006064820152608401610dde565b6060611dcd8484600085856000808673ffffffffffffffffffffffffffffffffffffffff168587604051614a5c9190615c9d565b60006040518083038185875af1925050503d8060008114614a99576040519150601f19603f3d011682016040523d82523d6000602084013e614a9e565b606091505b509150915061441b8783838760608315614b40578251600003614b395773ffffffffffffffffffffffffffffffffffffffff85163b614b39576040517f08c379a000000000000000000000000000000000000000000000000000000000815260206004820152601d60248201527f416464726573733a2063616c6c20746f206e6f6e2d636f6e74726163740000006044820152606401610dde565b5081611dcd565b611dcd8383815115614b555781518083602001fd5b806040517f08c379a0000000000000000000000000000000000000000000000000000000008152600401610dde9190614c8a565b604051806060016040528060008019168152602001600067ffffffffffffffff168152602001614bcc604051806040016040528060008152602001600081525090565b905290565b7fffffffff00000000000000000000000000000000000000000000000000000000811681146122f757600080fd5b600060208284031215614c1157600080fd5b81356120d281614bd1565b60005b83811015614c37578181015183820152602001614c1f565b50506000910152565b60008151808452614c58816020860160208601614c1c565b601f017fffffffffffffffffffffffffffffffffffffffffffffffffffffffffffffffe0169290920160200192915050565b6020815260006120d26020830184614c40565b600060208284031215614caf57600080fd5b5035919050565b73ffffffffffffffffffffffffffffffffffffffff811681146122f757600080fd5b60008060408385031215614ceb57600080fd5b8235614cf681614cb6565b946020939093013593505050565b60008083601f840112614d1657600080fd5b50813567ffffffffffffffff811115614d2e57600080fd5b6020830191508360208260051b850101111561473c57600080fd5b60008060208385031215614d5c57600080fd5b823567ffffffffffffffff811115614d7357600080fd5b614d7f85828601614d04565b90969095509350505050565b600060608284031215614d9d57600080fd5b50919050565b60008083601f840112614db557600080fd5b50813567ffffffffffffffff811115614dcd57600080fd5b60208301915083602082850101111561473c57600080fd5b600080600080600080600060e0888a031215614e0057600080fd5b614e0a8989614d8b565b965060608801359550608088013567ffffffffffffffff80821115614e2e57600080fd5b614e3a8b838c01614da3565b909750955060a08a01359150614e4f82614cb6565b90935060c08901359080821115614e6557600080fd5b50614e728a828b01614da3565b989b979a50959850939692959293505050565b600080600080600060808688031215614e9d57600080fd5b8535614ea881614cb6565b94506020860135614eb881614cb6565b935060408601359250606086013567ffffffffffffffff811115614edb57600080fd5b614ee788828901614da3565b969995985093965092949392505050565b600080600060608486031215614f0d57600080fd5b8335614f1881614cb6565b92506020840135614f2881614cb6565b929592945050506040919091013590565b803563ffffffff81168114613ab557600080fd5b60008060408385031215614f6057600080fd5b614cf683614f39565b600060208284031215614f7b57600080fd5b81356120d281614cb6565b600081518084526020808501945080840160005b83811015614fb657815187529582019590820190600101614f9a565b509495945050505050565b6020815260006120d26020830184614f86565b803561ffff81168114613ab557600080fd5b60008060408385031215614ff957600080fd5b61500283614f39565b915061501060208401614fd4565b90509250929050565b80151581146122f757600080fd5b60008060008060006080868803121561503f57600080fd5b61504886614f39565b945060208601359350604086013567ffffffffffffffff81111561506b57600080fd5b61507788828901614da3565b909450925050606086013561508b81615019565b809150509295509295909350565b60008060008060008060a087890312156150b257600080fd5b6150bb87614f39565b95506020870135945060408701356150d281614cb6565b9350606087013567ffffffffffffffff8111156150ee57600080fd5b6150fa89828a01614da3565b909450925050608087013561510e81615019565b809150509295509295509295565b6000806040838503121561512f57600080fd5b823561513a81614cb6565b9150602083013561514a81615019565b809150509250929050565b7f4e487b7100000000000000000000000000000000000000000000000000000000600052604160045260246000fd5b604051601f82017fffffffffffffffffffffffffffffffffffffffffffffffffffffffffffffffe016810167ffffffffffffffff811182821017156151cb576151cb615155565b604052919050565b600080600080608085870312156151e957600080fd5b84356151f481614cb6565b935060208581013561520581614cb6565b935060408601359250606086013567ffffffffffffffff8082111561522957600080fd5b818801915088601f83011261523d57600080fd5b81358181111561524f5761524f615155565b61527f847fffffffffffffffffffffffffffffffffffffffffffffffffffffffffffffffe0601f84011601615184565b9150808252898482850101111561529557600080fd5b808484018584013760008482840101525080935050505092959194509250565b6000602082840312156152c757600080fd5b6120d282614f39565b600080600080606085870312156152e657600080fd5b6152ef85614f39565b93506152fd60208601614fd4565b9250604085013567ffffffffffffffff81111561531957600080fd5b61532587828801614da3565b95989497509550505050565b6040815260006153446040830185614f86565b90508260208301529392505050565b6000806040838503121561536657600080fd5b823561537181614cb6565b9150602083013561514a81614cb6565b60006060828403121561539357600080fd5b6120d28383614d8b565b600181811c908216806153b157607f821691505b602082108103614d9d577f4e487b7100000000000000000000000000000000000000000000000000000000600052602260045260246000fd5b7f4e487b7100000000000000000000000000000000000000000000000000000000600052601160045260246000fd5b67ffffffffffffffff82811682821603908082111561543a5761543a6153ea565b5092915050565b7f4e487b7100000000000000000000000000000000000000000000000000000000600052603260045260246000fd5b60007fffffffffffffffffffffffffffffffffffffffffffffffffffffffffffffffff82036154a1576154a16153ea565b5060010190565b80820180821115610c4e57610c4e6153ea565b6000602082840312156154cd57600080fd5b5051919050565b600082357fffffffffffffffffffffffffffffffffffffffffffffffffffffffffffffffa183360301811261550857600080fd5b9190910192915050565b60008083357fffffffffffffffffffffffffffffffffffffffffffffffffffffffffffffffe184360301811261554757600080fd5b83018035915067ffffffffffffffff82111561556257600080fd5b60200191503681900382131561473c57600080fd5b60006020828403121561558957600080fd5b6120d282614fd4565b601f821115610ea657600081815260208120601f850160051c810160208610156155b95750805b601f850160051c820191505b818110156117d4578281556001016155c5565b67ffffffffffffffff8311156155f0576155f0615155565b615604836155fe835461539d565b83615592565b6000601f84116001811461565657600085156156205750838201355b7fffffffffffffffffffffffffffffffffffffffffffffffffffffffffffffffff600387901b1c1916600186901b17835561159c565b6000838152602090207fffffffffffffffffffffffffffffffffffffffffffffffffffffffffffffffe0861690835b828110156156a55786850135825560209485019460019092019101615685565b50868210156156e0577fffffffffffffffffffffffffffffffffffffffffffffffffffffffffffffffff60f88860031b161c19848701351681555b505060018560011b0183555050505050565b8183528181602085013750600060208284010152600060207fffffffffffffffffffffffffffffffffffffffffffffffffffffffffffffffe0601f840116840101905092915050565b60208082528181018390526000906040808401600586901b8501820187855b8881101561586b577fffffffffffffffffffffffffffffffffffffffffffffffffffffffffffffffc088840301845281357fffffffffffffffffffffffffffffffffffffffffffffffffffffffffffffffa18b36030181126157bb57600080fd5b8a01606063ffffffff6157cd83614f39565b16855261ffff6157de898401614fd4565b1688860152868201357fffffffffffffffffffffffffffffffffffffffffffffffffffffffffffffffe183360301811261581757600080fd5b90910187810191903567ffffffffffffffff81111561583557600080fd5b80360383131561584457600080fd5b818887015261585682870182856156f2565b9689019695505050918601915060010161575a565b509098975050505050505050565b6000808585111561588957600080fd5b8386111561589657600080fd5b5050820193919092039150565b600084516158b5818460208901614c1c565b8201838582376000930192835250909392505050565b602081526000611dcd6020830184866156f2565b600083516158f1818460208801614c1c565b835190830190615905818360208801614c1c565b01949350505050565b67ffffffffffffffff81811683821601908082111561543a5761543a6153ea565b60007f07ffffffffffffffffffffffffffffffffffffffffffffffffffffffffffffff83111561595e57600080fd5b8260051b80858437919091019392505050565b81810381811115610c4e57610c4e6153ea565b7f4e487b7100000000000000000000000000000000000000000000000000000000600052603160045260246000fd5b7fffff00000000000000000000000000000000000000000000000000000000000081358181169160028510156159f35780818660020360031b1b83161692505b505092915050565b7f4e487b7100000000000000000000000000000000000000000000000000000000600052601260045260246000fd5b6040815263ffffffff8351166040820152602083015160608201526000604084015160a06080840152615a6060e0840182614c40565b905060608501517fffffffffffffffffffffffffffffffffffffffffffffffffffffffffffffffc08483030160a0850152615a9b8282614c40565b60809690960151151560c085015250505073ffffffffffffffffffffffffffffffffffffffff9190911660209091015290565b600060408284031215615ae057600080fd5b6040516040810181811067ffffffffffffffff82111715615b0357615b03615155565b604052825181526020928301519281019290925250919050565b600060408284031215615b2f57600080fd5b6120d28383615ace565b8082028115828204841417610c4e57610c4e6153ea565b600082615b86577f4e487b7100000000000000000000000000000000000000000000000000000000600052601260045260246000fd5b500490565b600060208284031215615b9d57600080fd5b81516120d281615019565b600060808284031215615bba57600080fd5b6040516060810167ffffffffffffffff8282108183111715615bde57615bde615155565b8160405284518352602085015191508082168214615bfb57600080fd5b506020820152615c0e8460408501615ace565b60408201529392505050565b600073ffffffffffffffffffffffffffffffffffffffff808716835280861660208401525083604083015260806060830152615c596080830184614c40565b9695505050505050565b600060208284031215615c7557600080fd5b81516120d281614bd1565b600060208284031215615c9257600080fd5b81516120d281614cb6565b60008251615508818460208701614c1c56fea26469706673582212203e445f664d3b053df53ae047da8dc62839f47a953c9f24bf87e971f55a7788f864736f6c63430008140033",
  "devdoc": {
    "events": {
      "Approval(address,address,uint256)": {
        "details": "Emitted when `owner` enables `approved` to manage the `tokenId` token."
      },
      "ApprovalForAll(address,address,bool)": {
        "details": "Emitted when `owner` enables or disables (`approved`) `operator` to manage all of its assets."
      },
      "RewardsClaimed(address,uint256)": {
        "details": "Emitted when a staker claims staking rewards."
      },
      "TokensStaked(address,uint256[])": {
        "details": "Emitted when a set of token-ids are staked."
      },
      "TokensWithdrawn(address,uint256[])": {
        "details": "Emitted when a set of staked token-ids are withdrawn."
      },
      "Transfer(address,address,uint256)": {
        "details": "Emitted when `tokenId` token is transferred from `from` to `to`."
      },
      "UpdatedRewardsPerUnitTime(uint256,uint256)": {
        "details": "Emitted when contract admin updates rewardsPerUnitTime."
      },
      "UpdatedTimeUnit(uint256,uint256)": {
        "details": "Emitted when contract admin updates timeUnit."
      }
    },
    "kind": "dev",
    "methods": {
      "allowInitializePath((uint32,bytes32,uint64))": {
        "details": "This indicates to the endpoint that the OApp has enabled msgs for this particular path to be received.This defaults to assuming if a peer has been set, its initialized. Can be overridden by the OApp if there is other logic to determine this.",
        "params": {
          "origin": "The origin information containing the source endpoint and sender address."
        },
        "returns": {
          "_0": "Whether the path has been initialized."
        }
      },
      "approve(address,uint256)": {
        "details": "See {IERC721-approve}."
      },
      "balanceOf(address)": {
        "details": "See {IERC721-balanceOf}."
      },
      "claimRewards()": {
        "details": "See {_claimRewards}. Override that to implement custom logic.             See {_calculateRewards} for reward-calculation logic."
      },
      "combineOptions(uint32,uint16,bytes)": {
        "details": "If there is an enforced lzReceive option: - {gasLimit: 200k, msg.value: 1 ether} AND a caller supplies a lzReceive option: {gasLimit: 100k, msg.value: 0.5 ether} - The resulting options will be {gasLimit: 300k, msg.value: 1.5 ether} when the message is executed on the remote lzReceive() function.This presence of duplicated options is handled off-chain in the verifier/executor.",
        "params": {
          "_eid": "The endpoint ID.",
          "_extraOptions": "Additional options passed by the caller.",
          "_msgType": "The OAPP message type."
        },
        "returns": {
          "_0": "options The combination of caller specified options AND enforced options."
        }
      },
      "composeMsgSender()": {
        "details": "Applications can optionally choose to implement a separate composeMsg sender that is NOT the bridging layer.The default sender IS the OApp implementer.",
        "returns": {
          "sender": "The address responsible for 'sending' composeMsg's to the Endpoint."
        }
      },
      "getApproved(uint256)": {
        "details": "See {IERC721-getApproved}."
      },
      "getStakeInfo(address)": {
        "params": {
          "_staker": "Address for which to calculated rewards."
        },
        "returns": {
          "_rewards": "       Available reward amount.",
          "_tokensStaked": "  List of token-ids staked by staker."
        }
      },
      "isApprovedForAll(address,address)": {
        "details": "See {IERC721-isApprovedForAll}."
      },
      "lzReceive((uint32,bytes32,uint64),bytes32,bytes,address,bytes)": {
        "details": "Entry point for receiving messages or packets from the endpoint.Entry point for receiving msg/packet from the LayerZero endpoint.",
        "params": {
          "_executor": "The address of the executor for the received message.",
          "_extraData": "Additional arbitrary data provided by the corresponding executor.",
          "_guid": "The unique identifier for the received LayerZero message.",
          "_message": "The payload of the received message.",
          "_origin": "The origin information containing the source endpoint and sender address.  - srcEid: The source chain endpoint ID.  - sender: The sender address on the src chain.  - nonce: The nonce of the message."
        }
      },
      "name()": {
        "details": "See {IERC721Metadata-name}."
      },
      "nextNonce(uint32,bytes32)": {
        "details": "_srcEid The source endpoint ID._sender The sender address.The path nonce starts from 1. If 0 is returned it means that there is NO nonce ordered enforcement.Is required by the off-chain executor to determine the OApp expects msg execution is ordered.This is also enforced by the OApp.By default this is NOT enabled. ie. nextNonce is hardcoded to return 0.",
        "returns": {
          "nonce": "The next nonce."
        }
      },
      "oAppVersion()": {
        "returns": {
          "receiverVersion": "The version of the OAppReceiver.sol implementation.",
          "senderVersion": "The version of the OAppSender.sol implementation."
        }
      },
      "owner()": {
        "details": "Returns the address of the current owner."
      },
      "ownerOf(uint256)": {
        "details": "See {IERC721-ownerOf}."
      },
      "renounceOwnership()": {
        "details": "Leaves the contract without owner. It will not be possible to call `onlyOwner` functions. Can only be called by the current owner. NOTE: Renouncing ownership will leave the contract without an owner, thereby disabling any functionality that is only available to the owner."
      },
      "safeTransferFrom(address,address,uint256)": {
        "details": "See {IERC721-safeTransferFrom}."
      },
      "safeTransferFrom(address,address,uint256,bytes)": {
        "details": "See {IERC721-safeTransferFrom}."
      },
      "setApprovalForAll(address,bool)": {
        "details": "See {IERC721-setApprovalForAll}."
      },
      "setDelegate(address)": {
        "details": "Only the owner/admin of the OApp can call this function.Provides the ability for a delegate to set configs, on behalf of the OApp, directly on the Endpoint contract.",
        "params": {
          "_delegate": "The address of the delegate to be set."
        }
      },
      "setEnforcedOptions((uint32,uint16,bytes)[])": {
        "details": "Sets the enforced options for specific endpoint and message type combinations.Only the owner/admin of the OApp can call this function.Provides a way for the OApp to enforce things like paying for PreCrime, AND/OR minimum dst lzReceive gas amounts etc.These enforced options can vary as the potential options/execution on the remote may differ as per the msgType. eg. Amount of lzReceive() gas necessary to deliver a lzCompose() message adds overhead you dont want to pay if you are only making a standard LayerZero message ie. lzReceive() WITHOUT sendCompose().",
        "params": {
          "_enforcedOptions": "An array of EnforcedOptionParam structures specifying enforced options."
        }
      },
      "setPeer(uint32,bytes32)": {
        "details": "Only the owner/admin of the OApp can call this function.Indicates that the peer is trusted to send LayerZero messages to this OApp.Set this to bytes32(0) to remove the peer address.Peer is a bytes32 to accommodate non-evm chains.",
        "params": {
          "_eid": "The endpoint ID.",
          "_peer": "The address of the peer to be associated with the corresponding endpoint."
        }
      },
      "setRewardsPerUnitTime(uint256)": {
        "details": "Only admin/authorized-account can call it.",
        "params": {
          "_rewardsPerUnitTime": "New rewards per unit time."
        }
      },
      "setTimeUnit(uint256)": {
        "details": "Only admin/authorized-account can call it.",
        "params": {
          "_timeUnit": "New time unit."
        }
      },
      "stake(uint256[])": {
        "details": "See {_stake}. Override that to implement custom logic.",
        "params": {
          "_tokenIds": "List of tokens to stake."
        }
      },
      "supportsInterface(bytes4)": {
        "details": "See {IERC165-supportsInterface}."
      },
      "symbol()": {
        "details": "See {IERC721Metadata-symbol}."
      },
      "tokenURI(uint256)": {
        "details": "See {IERC721Metadata-tokenURI}."
      },
      "transferFrom(address,address,uint256)": {
        "details": "See {IERC721-transferFrom}."
      },
      "transferOwnership(address)": {
        "details": "Transfers ownership of the contract to a new account (`newOwner`). Can only be called by the current owner."
      },
      "withdraw(uint256[])": {
        "details": "See {_withdraw}. Override that to implement custom logic.",
        "params": {
          "_tokenIds": "List of tokens to withdraw."
        }
      }
    },
    "version": 1
  },
  "userdoc": {
    "kind": "user",
    "methods": {
      "allowInitializePath((uint32,bytes32,uint64))": {
        "notice": "Checks if the path initialization is allowed based on the provided origin."
      },
      "claimRewards()": {
        "notice": "Claim accumulated rewards."
      },
      "combineOptions(uint32,uint16,bytes)": {
        "notice": "Combines options for a given endpoint and message type."
      },
      "composeMsgSender()": {
        "notice": "Retrieves the address responsible for 'sending' composeMsg's to the Endpoint."
      },
      "endpoint()": {
        "notice": "Retrieves the LayerZero endpoint associated with the OApp."
      },
      "getRewardTokenBalance()": {
        "notice": "View total rewards available in the staking contract."
      },
      "getStakeInfo(address)": {
        "notice": "View amount staked and total rewards for a user."
      },
      "nextNonce(uint32,bytes32)": {
        "notice": "Retrieves the next nonce for a given source endpoint and sender address."
      },
      "oAppVersion()": {
        "notice": "Retrieves the OApp version information."
      },
      "peers(uint32)": {
        "notice": "Retrieves the peer (OApp) associated with a corresponding endpoint."
      },
      "setDelegate(address)": {
        "notice": "Sets the delegate address for the OApp."
      },
      "setPeer(uint32,bytes32)": {
        "notice": "Sets the peer address (OApp instance) for a corresponding endpoint."
      },
      "setRewardsPerUnitTime(uint256)": {
        "notice": "Set rewards per unit of time.           Interpreted as x rewards per second/per day/etc based on time-unit."
      },
      "setTimeUnit(uint256)": {
        "notice": "Set time unit. Set as a number of seconds.           Could be specified as -- x * 1 hours, x * 1 days, etc."
      },
      "stake(uint256[])": {
        "notice": "Stake ERC721 Tokens."
      },
      "withdraw(uint256[])": {
        "notice": "Withdraw staked tokens."
      }
    },
    "version": 1
  },
  "storageLayout": {
    "storage": [
      {
        "astId": 2119,
        "contract": "contracts/ERC721/KingONFT.sol:KingONFT",
        "label": "_name",
        "offset": 0,
        "slot": "0",
        "type": "t_string_storage"
      },
      {
        "astId": 2121,
        "contract": "contracts/ERC721/KingONFT.sol:KingONFT",
        "label": "_symbol",
        "offset": 0,
        "slot": "1",
        "type": "t_string_storage"
      },
      {
        "astId": 2125,
        "contract": "contracts/ERC721/KingONFT.sol:KingONFT",
        "label": "_owners",
        "offset": 0,
        "slot": "2",
        "type": "t_mapping(t_uint256,t_address)"
      },
      {
        "astId": 2129,
        "contract": "contracts/ERC721/KingONFT.sol:KingONFT",
        "label": "_balances",
        "offset": 0,
        "slot": "3",
        "type": "t_mapping(t_address,t_uint256)"
      },
      {
        "astId": 2133,
        "contract": "contracts/ERC721/KingONFT.sol:KingONFT",
        "label": "_tokenApprovals",
        "offset": 0,
        "slot": "4",
        "type": "t_mapping(t_uint256,t_address)"
      },
      {
        "astId": 2139,
        "contract": "contracts/ERC721/KingONFT.sol:KingONFT",
        "label": "_operatorApprovals",
        "offset": 0,
        "slot": "5",
        "type": "t_mapping(t_address,t_mapping(t_address,t_bool))"
      },
      {
        "astId": 5988,
        "contract": "contracts/ERC721/KingONFT.sol:KingONFT",
        "label": "_status",
        "offset": 0,
        "slot": "6",
        "type": "t_uint256"
      },
      {
        "astId": 4907,
        "contract": "contracts/ERC721/KingONFT.sol:KingONFT",
        "label": "isStaking",
        "offset": 0,
        "slot": "7",
        "type": "t_uint8"
      },
      {
        "astId": 4910,
        "contract": "contracts/ERC721/KingONFT.sol:KingONFT",
        "label": "nextConditionId",
        "offset": 1,
        "slot": "7",
        "type": "t_uint64"
      },
      {
        "astId": 4914,
        "contract": "contracts/ERC721/KingONFT.sol:KingONFT",
        "label": "indexedTokens",
        "offset": 0,
        "slot": "8",
        "type": "t_array(t_uint256)dyn_storage"
      },
      {
        "astId": 4918,
        "contract": "contracts/ERC721/KingONFT.sol:KingONFT",
        "label": "stakersArray",
        "offset": 0,
        "slot": "9",
        "type": "t_array(t_address)dyn_storage"
      },
      {
        "astId": 4923,
        "contract": "contracts/ERC721/KingONFT.sol:KingONFT",
        "label": "isIndexed",
        "offset": 0,
        "slot": "10",
        "type": "t_mapping(t_uint256,t_bool)"
      },
      {
        "astId": 4929,
        "contract": "contracts/ERC721/KingONFT.sol:KingONFT",
        "label": "stakers",
        "offset": 0,
        "slot": "11",
        "type": "t_mapping(t_address,t_struct(Staker)5938_storage)"
      },
      {
        "astId": 4934,
        "contract": "contracts/ERC721/KingONFT.sol:KingONFT",
        "label": "stakerAddress",
        "offset": 0,
        "slot": "12",
        "type": "t_mapping(t_uint256,t_address)"
      },
      {
        "astId": 4940,
        "contract": "contracts/ERC721/KingONFT.sol:KingONFT",
        "label": "stakingConditions",
        "offset": 0,
        "slot": "13",
        "type": "t_mapping(t_uint256,t_struct(StakingCondition)5948_storage)"
      },
      {
        "astId": 1498,
        "contract": "contracts/ERC721/KingONFT.sol:KingONFT",
        "label": "_owner",
        "offset": 0,
        "slot": "14",
        "type": "t_address"
      },
      {
        "astId": 64,
        "contract": "contracts/ERC721/KingONFT.sol:KingONFT",
        "label": "peers",
        "offset": 0,
        "slot": "15",
        "type": "t_mapping(t_uint32,t_bytes32)"
      },
      {
        "astId": 630,
        "contract": "contracts/ERC721/KingONFT.sol:KingONFT",
        "label": "enforcedOptions",
        "offset": 0,
        "slot": "16",
        "type": "t_mapping(t_uint32,t_mapping(t_uint16,t_bytes_storage))"
      }
    ],
    "types": {
      "t_address": {
        "encoding": "inplace",
        "label": "address",
        "numberOfBytes": "20"
      },
      "t_array(t_address)dyn_storage": {
        "base": "t_address",
        "encoding": "dynamic_array",
        "label": "address[]",
        "numberOfBytes": "32"
      },
      "t_array(t_uint256)dyn_storage": {
        "base": "t_uint256",
        "encoding": "dynamic_array",
        "label": "uint256[]",
        "numberOfBytes": "32"
      },
      "t_bool": {
        "encoding": "inplace",
        "label": "bool",
        "numberOfBytes": "1"
      },
      "t_bytes32": {
        "encoding": "inplace",
        "label": "bytes32",
        "numberOfBytes": "32"
      },
      "t_bytes_storage": {
        "encoding": "bytes",
        "label": "bytes",
        "numberOfBytes": "32"
      },
      "t_mapping(t_address,t_bool)": {
        "encoding": "mapping",
        "key": "t_address",
        "label": "mapping(address => bool)",
        "numberOfBytes": "32",
        "value": "t_bool"
      },
      "t_mapping(t_address,t_mapping(t_address,t_bool))": {
        "encoding": "mapping",
        "key": "t_address",
        "label": "mapping(address => mapping(address => bool))",
        "numberOfBytes": "32",
        "value": "t_mapping(t_address,t_bool)"
      },
      "t_mapping(t_address,t_struct(Staker)5938_storage)": {
        "encoding": "mapping",
        "key": "t_address",
        "label": "mapping(address => struct IStaking721.Staker)",
        "numberOfBytes": "32",
        "value": "t_struct(Staker)5938_storage"
      },
      "t_mapping(t_address,t_uint256)": {
        "encoding": "mapping",
        "key": "t_address",
        "label": "mapping(address => uint256)",
        "numberOfBytes": "32",
        "value": "t_uint256"
      },
      "t_mapping(t_uint16,t_bytes_storage)": {
        "encoding": "mapping",
        "key": "t_uint16",
        "label": "mapping(uint16 => bytes)",
        "numberOfBytes": "32",
        "value": "t_bytes_storage"
      },
      "t_mapping(t_uint256,t_address)": {
        "encoding": "mapping",
        "key": "t_uint256",
        "label": "mapping(uint256 => address)",
        "numberOfBytes": "32",
        "value": "t_address"
      },
      "t_mapping(t_uint256,t_bool)": {
        "encoding": "mapping",
        "key": "t_uint256",
        "label": "mapping(uint256 => bool)",
        "numberOfBytes": "32",
        "value": "t_bool"
      },
      "t_mapping(t_uint256,t_struct(StakingCondition)5948_storage)": {
        "encoding": "mapping",
        "key": "t_uint256",
        "label": "mapping(uint256 => struct IStaking721.StakingCondition)",
        "numberOfBytes": "32",
        "value": "t_struct(StakingCondition)5948_storage"
      },
      "t_mapping(t_uint32,t_bytes32)": {
        "encoding": "mapping",
        "key": "t_uint32",
        "label": "mapping(uint32 => bytes32)",
        "numberOfBytes": "32",
        "value": "t_bytes32"
      },
      "t_mapping(t_uint32,t_mapping(t_uint16,t_bytes_storage))": {
        "encoding": "mapping",
        "key": "t_uint32",
        "label": "mapping(uint32 => mapping(uint16 => bytes))",
        "numberOfBytes": "32",
        "value": "t_mapping(t_uint16,t_bytes_storage)"
      },
      "t_string_storage": {
        "encoding": "bytes",
        "label": "string",
        "numberOfBytes": "32"
      },
      "t_struct(Staker)5938_storage": {
        "encoding": "inplace",
        "label": "struct IStaking721.Staker",
        "members": [
          {
            "astId": 5931,
            "contract": "contracts/ERC721/KingONFT.sol:KingONFT",
            "label": "amountStaked",
            "offset": 0,
            "slot": "0",
            "type": "t_uint64"
          },
          {
            "astId": 5933,
            "contract": "contracts/ERC721/KingONFT.sol:KingONFT",
            "label": "conditionIdOflastUpdate",
            "offset": 8,
            "slot": "0",
            "type": "t_uint64"
          },
          {
            "astId": 5935,
            "contract": "contracts/ERC721/KingONFT.sol:KingONFT",
            "label": "timeOfLastUpdate",
            "offset": 16,
            "slot": "0",
            "type": "t_uint128"
          },
          {
            "astId": 5937,
            "contract": "contracts/ERC721/KingONFT.sol:KingONFT",
            "label": "unclaimedRewards",
            "offset": 0,
            "slot": "1",
            "type": "t_uint256"
          }
        ],
        "numberOfBytes": "64"
      },
      "t_struct(StakingCondition)5948_storage": {
        "encoding": "inplace",
        "label": "struct IStaking721.StakingCondition",
        "members": [
          {
            "astId": 5941,
            "contract": "contracts/ERC721/KingONFT.sol:KingONFT",
            "label": "timeUnit",
            "offset": 0,
            "slot": "0",
            "type": "t_uint256"
          },
          {
            "astId": 5943,
            "contract": "contracts/ERC721/KingONFT.sol:KingONFT",
            "label": "rewardsPerUnitTime",
            "offset": 0,
            "slot": "1",
            "type": "t_uint256"
          },
          {
            "astId": 5945,
            "contract": "contracts/ERC721/KingONFT.sol:KingONFT",
            "label": "startTimestamp",
            "offset": 0,
            "slot": "2",
            "type": "t_uint256"
          },
          {
            "astId": 5947,
            "contract": "contracts/ERC721/KingONFT.sol:KingONFT",
            "label": "endTimestamp",
            "offset": 0,
            "slot": "3",
            "type": "t_uint256"
          }
        ],
        "numberOfBytes": "128"
      },
      "t_uint128": {
        "encoding": "inplace",
        "label": "uint128",
        "numberOfBytes": "16"
      },
      "t_uint16": {
        "encoding": "inplace",
        "label": "uint16",
        "numberOfBytes": "2"
      },
      "t_uint256": {
        "encoding": "inplace",
        "label": "uint256",
        "numberOfBytes": "32"
      },
      "t_uint32": {
        "encoding": "inplace",
        "label": "uint32",
        "numberOfBytes": "4"
      },
      "t_uint64": {
        "encoding": "inplace",
        "label": "uint64",
        "numberOfBytes": "8"
      },
      "t_uint8": {
        "encoding": "inplace",
        "label": "uint8",
        "numberOfBytes": "1"
      }
    }
  }
}