{
  "address": "0x2ff98e76E311A1def51513Be3d81ABA3121CB424",
  "abi": [
    {
      "inputs": [
        {
          "internalType": "address",
          "name": "_erc721",
          "type": "address"
        },
        {
          "internalType": "address",
          "name": "_lzEndpoint",
          "type": "address"
        }
      ],
      "stateMutability": "nonpayable",
      "type": "constructor"
    },
    {
      "inputs": [],
      "name": "ERC721IsZeroAddress",
      "type": "error"
    },
    {
      "inputs": [],
      "name": "InvalidDelegate",
      "type": "error"
    },
    {
      "inputs": [],
      "name": "InvalidEndpointCall",
      "type": "error"
    },
    {
      "inputs": [
        {
          "internalType": "bytes",
          "name": "options",
          "type": "bytes"
        }
      ],
      "name": "InvalidOptions",
      "type": "error"
    },
    {
      "inputs": [],
      "name": "LzTokenUnavailable",
      "type": "error"
    },
    {
      "inputs": [
        {
          "internalType": "uint32",
          "name": "eid",
          "type": "uint32"
        }
      ],
      "name": "NoPeer",
      "type": "error"
    },
    {
      "inputs": [
        {
          "internalType": "uint256",
          "name": "msgValue",
          "type": "uint256"
        }
      ],
      "name": "NotEnoughNative",
      "type": "error"
    },
    {
      "inputs": [
        {
          "internalType": "address",
          "name": "addr",
          "type": "address"
        }
      ],
      "name": "OnlyEndpoint",
      "type": "error"
    },
    {
      "inputs": [
        {
          "internalType": "uint32",
          "name": "eid",
          "type": "uint32"
        },
        {
          "internalType": "bytes32",
          "name": "sender",
          "type": "bytes32"
        }
      ],
      "name": "OnlyPeer",
      "type": "error"
    },
    {
      "anonymous": false,
      "inputs": [
        {
          "components": [
            {
              "internalType": "uint32",
              "name": "eid",
              "type": "uint32"
            },
            {
              "internalType": "uint16",
              "name": "msgType",
              "type": "uint16"
            },
            {
              "internalType": "bytes",
              "name": "options",
              "type": "bytes"
            }
          ],
          "indexed": false,
          "internalType": "struct EnforcedOptionParam[]",
          "name": "_enforcedOptions",
          "type": "tuple[]"
        }
      ],
      "name": "EnforcedOptionSet",
      "type": "event"
    },
    {
      "anonymous": false,
      "inputs": [
        {
          "indexed": true,
          "internalType": "address",
          "name": "previousOwner",
          "type": "address"
        },
        {
          "indexed": true,
          "internalType": "address",
          "name": "newOwner",
          "type": "address"
        }
      ],
      "name": "OwnershipTransferred",
      "type": "event"
    },
    {
      "anonymous": false,
      "inputs": [
        {
          "indexed": false,
          "internalType": "uint32",
          "name": "eid",
          "type": "uint32"
        },
        {
          "indexed": false,
          "internalType": "bytes32",
          "name": "peer",
          "type": "bytes32"
        }
      ],
      "name": "PeerSet",
      "type": "event"
    },
    {
      "inputs": [],
      "name": "BRIDGE",
      "outputs": [
        {
          "internalType": "uint16",
          "name": "",
          "type": "uint16"
        }
      ],
      "stateMutability": "view",
      "type": "function"
    },
    {
      "inputs": [
        {
          "components": [
            {
              "internalType": "uint32",
              "name": "srcEid",
              "type": "uint32"
            },
            {
              "internalType": "bytes32",
              "name": "sender",
              "type": "bytes32"
            },
            {
              "internalType": "uint64",
              "name": "nonce",
              "type": "uint64"
            }
          ],
          "internalType": "struct Origin",
          "name": "origin",
          "type": "tuple"
        }
      ],
      "name": "allowInitializePath",
      "outputs": [
        {
          "internalType": "bool",
          "name": "",
          "type": "bool"
        }
      ],
      "stateMutability": "view",
      "type": "function"
    },
    {
      "inputs": [
        {
          "internalType": "uint32",
          "name": "_dstEid",
          "type": "uint32"
        },
        {
          "internalType": "uint256",
          "name": "_tokenId",
          "type": "uint256"
        },
        {
          "internalType": "bytes",
          "name": "_extraOptions",
          "type": "bytes"
        },
        {
          "internalType": "bool",
          "name": "_payInLzToken",
          "type": "bool"
        }
      ],
      "name": "bridge",
      "outputs": [],
      "stateMutability": "payable",
      "type": "function"
    },
    {
      "inputs": [
        {
          "internalType": "uint32",
          "name": "_dstEid",
          "type": "uint32"
        },
        {
          "internalType": "uint256",
          "name": "_tokenId",
          "type": "uint256"
        },
        {
          "internalType": "address",
          "name": "_receiver",
          "type": "address"
        },
        {
          "internalType": "bytes",
          "name": "_extraOptions",
          "type": "bytes"
        },
        {
          "internalType": "bool",
          "name": "_payInLzToken",
          "type": "bool"
        }
      ],
      "name": "bridgeTo",
      "outputs": [],
      "stateMutability": "payable",
      "type": "function"
    },
    {
      "inputs": [
        {
          "internalType": "uint32",
          "name": "_eid",
          "type": "uint32"
        },
        {
          "internalType": "uint16",
          "name": "_msgType",
          "type": "uint16"
        },
        {
          "internalType": "bytes",
          "name": "_extraOptions",
          "type": "bytes"
        }
      ],
      "name": "combineOptions",
      "outputs": [
        {
          "internalType": "bytes",
          "name": "",
          "type": "bytes"
        }
      ],
      "stateMutability": "view",
      "type": "function"
    },
    {
      "inputs": [],
      "name": "composeMsgSender",
      "outputs": [
        {
          "internalType": "address",
          "name": "sender",
          "type": "address"
        }
      ],
      "stateMutability": "view",
      "type": "function"
    },
    {
      "inputs": [],
      "name": "endpoint",
      "outputs": [
        {
          "internalType": "contract ILayerZeroEndpointV2",
          "name": "",
          "type": "address"
        }
      ],
      "stateMutability": "view",
      "type": "function"
    },
    {
      "inputs": [
        {
          "internalType": "uint32",
          "name": "eid",
          "type": "uint32"
        },
        {
          "internalType": "uint16",
          "name": "msgType",
          "type": "uint16"
        }
      ],
      "name": "enforcedOptions",
      "outputs": [
        {
          "internalType": "bytes",
          "name": "enforcedOption",
          "type": "bytes"
        }
      ],
      "stateMutability": "view",
      "type": "function"
    },
    {
      "inputs": [],
      "name": "erc721",
      "outputs": [
        {
          "internalType": "contract IERC721",
          "name": "",
          "type": "address"
        }
      ],
      "stateMutability": "view",
      "type": "function"
    },
    {
      "inputs": [
        {
          "components": [
            {
              "internalType": "uint32",
              "name": "srcEid",
              "type": "uint32"
            },
            {
              "internalType": "bytes32",
              "name": "sender",
              "type": "bytes32"
            },
            {
              "internalType": "uint64",
              "name": "nonce",
              "type": "uint64"
            }
          ],
          "internalType": "struct Origin",
          "name": "_origin",
          "type": "tuple"
        },
        {
          "internalType": "bytes32",
          "name": "_guid",
          "type": "bytes32"
        },
        {
          "internalType": "bytes",
          "name": "_message",
          "type": "bytes"
        },
        {
          "internalType": "address",
          "name": "_executor",
          "type": "address"
        },
        {
          "internalType": "bytes",
          "name": "_extraData",
          "type": "bytes"
        }
      ],
      "name": "lzReceive",
      "outputs": [],
      "stateMutability": "payable",
      "type": "function"
    },
    {
      "inputs": [
        {
          "internalType": "uint32",
          "name": "",
          "type": "uint32"
        },
        {
          "internalType": "bytes32",
          "name": "",
          "type": "bytes32"
        }
      ],
      "name": "nextNonce",
      "outputs": [
        {
          "internalType": "uint64",
          "name": "nonce",
          "type": "uint64"
        }
      ],
      "stateMutability": "view",
      "type": "function"
    },
    {
      "inputs": [],
      "name": "oAppVersion",
      "outputs": [
        {
          "internalType": "uint64",
          "name": "senderVersion",
          "type": "uint64"
        },
        {
          "internalType": "uint64",
          "name": "receiverVersion",
          "type": "uint64"
        }
      ],
      "stateMutability": "pure",
      "type": "function"
    },
    {
      "inputs": [
        {
          "internalType": "address",
          "name": "",
          "type": "address"
        },
        {
          "internalType": "address",
          "name": "",
          "type": "address"
        },
        {
          "internalType": "uint256",
          "name": "",
          "type": "uint256"
        },
        {
          "internalType": "bytes",
          "name": "",
          "type": "bytes"
        }
      ],
      "name": "onERC721Received",
      "outputs": [
        {
          "internalType": "bytes4",
          "name": "",
          "type": "bytes4"
        }
      ],
      "stateMutability": "pure",
      "type": "function"
    },
    {
      "inputs": [],
      "name": "owner",
      "outputs": [
        {
          "internalType": "address",
          "name": "",
          "type": "address"
        }
      ],
      "stateMutability": "view",
      "type": "function"
    },
    {
      "inputs": [
        {
          "internalType": "uint32",
          "name": "eid",
          "type": "uint32"
        }
      ],
      "name": "peers",
      "outputs": [
        {
          "internalType": "bytes32",
          "name": "peer",
          "type": "bytes32"
        }
      ],
      "stateMutability": "view",
      "type": "function"
    },
    {
      "inputs": [
        {
          "internalType": "uint32",
          "name": "_dstEid",
          "type": "uint32"
        },
        {
          "internalType": "uint256",
          "name": "_tokenId",
          "type": "uint256"
        },
        {
          "internalType": "address",
          "name": "_receiver",
          "type": "address"
        },
        {
          "internalType": "bytes",
          "name": "_extraOptions",
          "type": "bytes"
        },
        {
          "internalType": "bool",
          "name": "_payInLzToken",
          "type": "bool"
        }
      ],
      "name": "quote",
      "outputs": [
        {
          "components": [
            {
              "internalType": "uint256",
              "name": "nativeFee",
              "type": "uint256"
            },
            {
              "internalType": "uint256",
              "name": "lzTokenFee",
              "type": "uint256"
            }
          ],
          "internalType": "struct MessagingFee",
          "name": "fee",
          "type": "tuple"
        }
      ],
      "stateMutability": "view",
      "type": "function"
    },
    {
      "inputs": [],
      "name": "renounceOwnership",
      "outputs": [],
      "stateMutability": "nonpayable",
      "type": "function"
    },
    {
      "inputs": [
        {
          "internalType": "address",
          "name": "_delegate",
          "type": "address"
        }
      ],
      "name": "setDelegate",
      "outputs": [],
      "stateMutability": "nonpayable",
      "type": "function"
    },
    {
      "inputs": [
        {
          "components": [
            {
              "internalType": "uint32",
              "name": "eid",
              "type": "uint32"
            },
            {
              "internalType": "uint16",
              "name": "msgType",
              "type": "uint16"
            },
            {
              "internalType": "bytes",
              "name": "options",
              "type": "bytes"
            }
          ],
          "internalType": "struct EnforcedOptionParam[]",
          "name": "_enforcedOptions",
          "type": "tuple[]"
        }
      ],
      "name": "setEnforcedOptions",
      "outputs": [],
      "stateMutability": "nonpayable",
      "type": "function"
    },
    {
      "inputs": [
        {
          "internalType": "uint32",
          "name": "_eid",
          "type": "uint32"
        },
        {
          "internalType": "bytes32",
          "name": "_peer",
          "type": "bytes32"
        }
      ],
      "name": "setPeer",
      "outputs": [],
      "stateMutability": "nonpayable",
      "type": "function"
    },
    {
      "inputs": [
        {
          "internalType": "address",
          "name": "newOwner",
          "type": "address"
        }
      ],
      "name": "transferOwnership",
      "outputs": [],
      "stateMutability": "nonpayable",
      "type": "function"
    }
  ],
  "transactionHash": "0x8b45eaa9692de0aed91ae9f95f9a4383be3b816af4745d2d2d95d57c5af169f4",
  "args": [
    "0x00bfdd692aDb3e064F2854f97F592b1FA9443cb3",
    "0x6edce65403992e310a62460808c4b910d972f10f"
  ],
  "numDeployments": 1,
  "solcInputHash": "3b7d55e13d3944f0ea412908345f8c63",
  "bytecode": "0x60c06040523480156200001157600080fd5b50604051620025cf380380620025cf833981016040819052620000349162000180565b80338181620000433362000113565b6001600160a01b0380831660805281166200007157604051632d618d8160e21b815260040160405180910390fd5b60805160405163ca5eb5e160e01b81526001600160a01b0383811660048301529091169063ca5eb5e190602401600060405180830381600087803b158015620000b957600080fd5b505af1158015620000ce573d6000803e3d6000fd5b5050506001600160a01b03871694506200010093505050505760405163028c897560e11b815260040160405180910390fd5b506001600160a01b031660a052620001b8565b600080546001600160a01b038381166001600160a01b0319831681178455604051919092169283917f8be0079c531659141344cd1fd0a4f28419497f9722a3daafe3b4186f6b6457e09190a35050565b80516001600160a01b03811681146200017b57600080fd5b919050565b600080604083850312156200019457600080fd5b6200019f8362000163565b9150620001af6020840162000163565b90509250929050565b60805160a0516123b26200021d600039600081816104080152818161070601528181610da70152610ea8015260008181610292015281816104ff01528181610b25015281816110b7015281816111c2015281816112ec01526113e501526123b26000f3fe60806040526004361061016a5760003560e01c80638da5cb5b116100cb578063bca6ce641161007f578063ee9a31a211610059578063ee9a31a214610485578063f2fde38b146104ad578063ff7bd03d146104cd57600080fd5b8063bca6ce64146103f6578063ca5eb5e11461042a578063cf2a018d1461044a57600080fd5b8063b98bd070116100b0578063b98bd0701461037b578063bb0b6a531461039b578063bc70b354146103d657600080fd5b80638da5cb5b1461033d578063b92d0eff1461036857600080fd5b80635be1d96911610122578063664321da11610107578063664321da146102d9578063715018a6146102ec5780637d25a05e1461030157600080fd5b80635be1d9691461026d5780635e280f111461028057600080fd5b806317442b701161015357806317442b70146101ff5780633400288b146102205780635535d4611461024057600080fd5b806313137d651461016f578063150b7a0214610184575b600080fd5b61018261017d3660046117e4565b6104fd565b005b34801561019057600080fd5b506101c961019f366004611884565b7f150b7a020000000000000000000000000000000000000000000000000000000095945050505050565b6040517fffffffff0000000000000000000000000000000000000000000000000000000090911681526020015b60405180910390f35b34801561020b57600080fd5b506040805160018082526020820152016101f6565b34801561022c57600080fd5b5061018261023b366004611910565b6105fc565b34801561024c57600080fd5b5061026061025b36600461194c565b61065a565b6040516101f691906119ed565b61018261027b366004611a15565b6106ff565b34801561028c57600080fd5b506102b47f000000000000000000000000000000000000000000000000000000000000000081565b60405173ffffffffffffffffffffffffffffffffffffffff90911681526020016101f6565b6101826102e7366004611a87565b6107af565b3480156102f857600080fd5b506101826107c5565b34801561030d57600080fd5b5061032461031c366004611910565b600092915050565b60405167ffffffffffffffff90911681526020016101f6565b34801561034957600080fd5b5060005473ffffffffffffffffffffffffffffffffffffffff166102b4565b34801561037457600080fd5b50306102b4565b34801561038757600080fd5b50610182610396366004611b0a565b6107d9565b3480156103a757600080fd5b506103c86103b6366004611b7f565b60016020526000908152604090205481565b6040519081526020016101f6565b3480156103e257600080fd5b506102606103f1366004611b9a565b610944565b34801561040257600080fd5b506102b47f000000000000000000000000000000000000000000000000000000000000000081565b34801561043657600080fd5b50610182610445366004611bfb565b610ad8565b34801561045657600080fd5b5061046a610465366004611a87565b610b7d565b604080518251815260209283015192810192909252016101f6565b34801561049157600080fd5b5061049a600181565b60405161ffff90911681526020016101f6565b3480156104b957600080fd5b506101826104c8366004611bfb565b610bf8565b3480156104d957600080fd5b506104ed6104e8366004611c18565b610caf565b60405190151581526020016101f6565b7f000000000000000000000000000000000000000000000000000000000000000073ffffffffffffffffffffffffffffffffffffffff163314610573576040517f91ac5e4f0000000000000000000000000000000000000000000000000000000081523360048201526024015b60405180910390fd5b6020870180359061058d90610588908a611b7f565b610ce5565b146105e45761059f6020880188611b7f565b6040517fc26bebcc00000000000000000000000000000000000000000000000000000000815263ffffffff90911660048201526020880135602482015260440161056a565b6105f387878787878787610d40565b50505050505050565b610604610e10565b63ffffffff8216600081815260016020908152604091829020849055815192835282018390527f238399d427b947898edb290f5ff0f9109849b1c3ba196a42e35f00c50a54b98b91015b60405180910390a15050565b60026020908152600092835260408084209091529082529020805461067e90611c34565b80601f01602080910402602001604051908101604052809291908181526020018280546106aa90611c34565b80156106f75780601f106106cc576101008083540402835291602001916106f7565b820191906000526020600020905b8154815290600101906020018083116106da57829003601f168201915b505050505081565b6107a885857f000000000000000000000000000000000000000000000000000000000000000073ffffffffffffffffffffffffffffffffffffffff16636352211e886040518263ffffffff1660e01b815260040161075f91815260200190565b602060405180830381865afa15801561077c573d6000803e3d6000fd5b505050506040513d601f19601f820116820180604052508101906107a09190611c81565b868686610e91565b5050505050565b6107bd868686868686610e91565b505050505050565b6107cd610e10565b6107d76000610fcc565b565b6107e1610e10565b60005b818110156109125761082683838381811061080157610801611c9e565b90506020028101906108139190611ccd565b610821906040810190611d0b565b611041565b82828281811061083857610838611c9e565b905060200281019061084a9190611ccd565b610858906040810190611d0b565b6002600086868681811061086e5761086e611c9e565b90506020028101906108809190611ccd565b61088e906020810190611b7f565b63ffffffff1663ffffffff16815260200190815260200160002060008686868181106108bc576108bc611c9e565b90506020028101906108ce9190611ccd565b6108df906040810190602001611d70565b61ffff1681526020810191909152604001600020916108ff919083611e00565b508061090a81611f1a565b9150506107e4565b507fbe4864a8e820971c0247f5992e2da559595f7bf076a21cb5928d443d2a13b674828260405161064e929190611fc2565b63ffffffff8416600090815260026020908152604080832061ffff8716845290915281208054606092919061097890611c34565b80601f01602080910402602001604051908101604052809291908181526020018280546109a490611c34565b80156109f15780601f106109c6576101008083540402835291602001916109f1565b820191906000526020600020905b8154815290600101906020018083116109d457829003601f168201915b505050505090508051600003610a415783838080601f016020809104026020016040519081016040528093929190818152602001838380828437600092019190915250929450610ad09350505050565b6000839003610a51579050610ad0565b60028310610a9a57610a638484611041565b80610a718460028188612100565b604051602001610a839392919061212a565b604051602081830303815290604052915050610ad0565b83836040517f9a6d49cd00000000000000000000000000000000000000000000000000000000815260040161056a929190612152565b949350505050565b610ae0610e10565b6040517fca5eb5e100000000000000000000000000000000000000000000000000000000815273ffffffffffffffffffffffffffffffffffffffff82811660048301527f0000000000000000000000000000000000000000000000000000000000000000169063ca5eb5e190602401600060405180830381600087803b158015610b6957600080fd5b505af11580156107a8573d6000803e3d6000fd5b60408051808201909152600080825260208201526040805173ffffffffffffffffffffffffffffffffffffffff8716602082015290810187905260009060600160405160208183030381529060405290506000610bdd8960018888610944565b9050610beb898383876110a1565b9998505050505050505050565b610c00610e10565b73ffffffffffffffffffffffffffffffffffffffff8116610ca3576040517f08c379a000000000000000000000000000000000000000000000000000000000815260206004820152602660248201527f4f776e61626c653a206e6577206f776e657220697320746865207a65726f206160448201527f6464726573730000000000000000000000000000000000000000000000000000606482015260840161056a565b610cac81610fcc565b50565b6000602082018035906001908390610cc79086611b7f565b63ffffffff1681526020810191909152604001600020541492915050565b63ffffffff811660009081526001602052604081205480610d3a576040517ff6ff4fb700000000000000000000000000000000000000000000000000000000815263ffffffff8416600482015260240161056a565b92915050565b600080610d4f86880188612166565b6040517f42842e0e00000000000000000000000000000000000000000000000000000000815230600482015273ffffffffffffffffffffffffffffffffffffffff8084166024830152604482018390529294509092507f0000000000000000000000000000000000000000000000000000000000000000909116906342842e0e90606401600060405180830381600087803b158015610ded57600080fd5b505af1158015610e01573d6000803e3d6000fd5b50505050505050505050505050565b60005473ffffffffffffffffffffffffffffffffffffffff1633146107d7576040517f08c379a000000000000000000000000000000000000000000000000000000000815260206004820181905260248201527f4f776e61626c653a2063616c6c6572206973206e6f7420746865206f776e6572604482015260640161056a565b73ffffffffffffffffffffffffffffffffffffffff7f0000000000000000000000000000000000000000000000000000000000000000166342842e0e336040517fffffffff0000000000000000000000000000000000000000000000000000000060e084901b16815273ffffffffffffffffffffffffffffffffffffffff909116600482015230602482015260448101889052606401600060405180830381600087803b158015610f4157600080fd5b505af1158015610f55573d6000803e3d6000fd5b50506040805173ffffffffffffffffffffffffffffffffffffffff881660208201528082018990528151808203830181526060909101909152915060009050610fa18860018787610944565b90506000610fb1898484876110a1565b9050610fc0898484843361118f565b50505050505050505050565b6000805473ffffffffffffffffffffffffffffffffffffffff8381167fffffffffffffffffffffffff0000000000000000000000000000000000000000831681178455604051919092169283917f8be0079c531659141344cd1fd0a4f28419497f9722a3daafe3b4186f6b6457e09190a35050565b60006110506002828486612100565b61105991612184565b60f01c90506003811461109c5782826040517f9a6d49cd00000000000000000000000000000000000000000000000000000000815260040161056a929190612152565b505050565b60408051808201909152600080825260208201527f000000000000000000000000000000000000000000000000000000000000000073ffffffffffffffffffffffffffffffffffffffff1663ddc28c586040518060a001604052808863ffffffff16815260200161111189610ce5565b8152602001878152602001868152602001851515815250306040518363ffffffff1660e01b81526004016111469291906121cc565b6040805180830381865afa158015611162573d6000803e3d6000fd5b505050506040513d601f19601f8201168201806040525081019061118691906122bf565b95945050505050565b611197611719565b60006111a684600001516112a7565b6020850151909150156111c0576111c084602001516112e8565b7f000000000000000000000000000000000000000000000000000000000000000073ffffffffffffffffffffffffffffffffffffffff16632637a450826040518060a001604052808b63ffffffff16815260200161121d8c610ce5565b81526020018a815260200189815260200160008960200151111515815250866040518463ffffffff1660e01b81526004016112599291906121cc565b60806040518083038185885af1158015611277573d6000803e3d6000fd5b50505050506040513d601f19601f8201168201806040525081019061129c91906122db565b979650505050505050565b60008134146112e4576040517f9f70412000000000000000000000000000000000000000000000000000000000815234600482015260240161056a565b5090565b60007f000000000000000000000000000000000000000000000000000000000000000073ffffffffffffffffffffffffffffffffffffffff1663e4fe1d946040518163ffffffff1660e01b8152600401602060405180830381865afa158015611355573d6000803e3d6000fd5b505050506040513d601f19601f820116820180604052508101906113799190611c81565b905073ffffffffffffffffffffffffffffffffffffffff81166113c8576040517f5373352a00000000000000000000000000000000000000000000000000000000815260040160405180910390fd5b61140a73ffffffffffffffffffffffffffffffffffffffff8216337f00000000000000000000000000000000000000000000000000000000000000008561140e565b5050565b6040805173ffffffffffffffffffffffffffffffffffffffff85811660248301528416604482015260648082018490528251808303909101815260849091019091526020810180517bffffffffffffffffffffffffffffffffffffffffffffffffffffffff167f23b872dd000000000000000000000000000000000000000000000000000000001790526114a39085906114a9565b50505050565b600061150b826040518060400160405280602081526020017f5361666545524332303a206c6f772d6c6576656c2063616c6c206661696c65648152508573ffffffffffffffffffffffffffffffffffffffff166115b89092919063ffffffff16565b905080516000148061152c57508080602001905181019061152c919061234d565b61109c576040517f08c379a000000000000000000000000000000000000000000000000000000000815260206004820152602a60248201527f5361666545524332303a204552433230206f7065726174696f6e20646964206e60448201527f6f74207375636365656400000000000000000000000000000000000000000000606482015260840161056a565b6060610ad08484600085856000808673ffffffffffffffffffffffffffffffffffffffff1685876040516115ec919061236a565b60006040518083038185875af1925050503d8060008114611629576040519150601f19603f3d011682016040523d82523d6000602084013e61162e565b606091505b509150915061129c87838387606083156116d05782516000036116c95773ffffffffffffffffffffffffffffffffffffffff85163b6116c9576040517f08c379a000000000000000000000000000000000000000000000000000000000815260206004820152601d60248201527f416464726573733a2063616c6c20746f206e6f6e2d636f6e7472616374000000604482015260640161056a565b5081610ad0565b610ad083838151156116e55781518083602001fd5b806040517f08c379a000000000000000000000000000000000000000000000000000000000815260040161056a91906119ed565b604051806060016040528060008019168152602001600067ffffffffffffffff16815260200161175c604051806040016040528060008152602001600081525090565b905290565b60006060828403121561177357600080fd5b50919050565b60008083601f84011261178b57600080fd5b50813567ffffffffffffffff8111156117a357600080fd5b6020830191508360208285010111156117bb57600080fd5b9250929050565b73ffffffffffffffffffffffffffffffffffffffff81168114610cac57600080fd5b600080600080600080600060e0888a0312156117ff57600080fd5b6118098989611761565b965060608801359550608088013567ffffffffffffffff8082111561182d57600080fd5b6118398b838c01611779565b909750955060a08a0135915061184e826117c2565b90935060c0890135908082111561186457600080fd5b506118718a828b01611779565b989b979a50959850939692959293505050565b60008060008060006080868803121561189c57600080fd5b85356118a7816117c2565b945060208601356118b7816117c2565b935060408601359250606086013567ffffffffffffffff8111156118da57600080fd5b6118e688828901611779565b969995985093965092949392505050565b803563ffffffff8116811461190b57600080fd5b919050565b6000806040838503121561192357600080fd5b61192c836118f7565b946020939093013593505050565b803561ffff8116811461190b57600080fd5b6000806040838503121561195f57600080fd5b611968836118f7565b91506119766020840161193a565b90509250929050565b60005b8381101561199a578181015183820152602001611982565b50506000910152565b600081518084526119bb81602086016020860161197f565b601f017fffffffffffffffffffffffffffffffffffffffffffffffffffffffffffffffe0169290920160200192915050565b602081526000611a0060208301846119a3565b9392505050565b8015158114610cac57600080fd5b600080600080600060808688031215611a2d57600080fd5b611a36866118f7565b945060208601359350604086013567ffffffffffffffff811115611a5957600080fd5b611a6588828901611779565b9094509250506060860135611a7981611a07565b809150509295509295909350565b60008060008060008060a08789031215611aa057600080fd5b611aa9876118f7565b9550602087013594506040870135611ac0816117c2565b9350606087013567ffffffffffffffff811115611adc57600080fd5b611ae889828a01611779565b9094509250506080870135611afc81611a07565b809150509295509295509295565b60008060208385031215611b1d57600080fd5b823567ffffffffffffffff80821115611b3557600080fd5b818501915085601f830112611b4957600080fd5b813581811115611b5857600080fd5b8660208260051b8501011115611b6d57600080fd5b60209290920196919550909350505050565b600060208284031215611b9157600080fd5b611a00826118f7565b60008060008060608587031215611bb057600080fd5b611bb9856118f7565b9350611bc76020860161193a565b9250604085013567ffffffffffffffff811115611be357600080fd5b611bef87828801611779565b95989497509550505050565b600060208284031215611c0d57600080fd5b8135611a00816117c2565b600060608284031215611c2a57600080fd5b611a008383611761565b600181811c90821680611c4857607f821691505b602082108103611773577f4e487b7100000000000000000000000000000000000000000000000000000000600052602260045260246000fd5b600060208284031215611c9357600080fd5b8151611a00816117c2565b7f4e487b7100000000000000000000000000000000000000000000000000000000600052603260045260246000fd5b600082357fffffffffffffffffffffffffffffffffffffffffffffffffffffffffffffffa1833603018112611d0157600080fd5b9190910192915050565b60008083357fffffffffffffffffffffffffffffffffffffffffffffffffffffffffffffffe1843603018112611d4057600080fd5b83018035915067ffffffffffffffff821115611d5b57600080fd5b6020019150368190038213156117bb57600080fd5b600060208284031215611d8257600080fd5b611a008261193a565b7f4e487b7100000000000000000000000000000000000000000000000000000000600052604160045260246000fd5b601f82111561109c57600081815260208120601f850160051c81016020861015611de15750805b601f850160051c820191505b818110156107bd57828155600101611ded565b67ffffffffffffffff831115611e1857611e18611d8b565b611e2c83611e268354611c34565b83611dba565b6000601f841160018114611e7e5760008515611e485750838201355b7fffffffffffffffffffffffffffffffffffffffffffffffffffffffffffffffff600387901b1c1916600186901b1783556107a8565b6000838152602090207fffffffffffffffffffffffffffffffffffffffffffffffffffffffffffffffe0861690835b82811015611ecd5786850135825560209485019460019092019101611ead565b5086821015611f08577fffffffffffffffffffffffffffffffffffffffffffffffffffffffffffffffff60f88860031b161c19848701351681555b505060018560011b0183555050505050565b60007fffffffffffffffffffffffffffffffffffffffffffffffffffffffffffffffff8203611f72577f4e487b7100000000000000000000000000000000000000000000000000000000600052601160045260246000fd5b5060010190565b8183528181602085013750600060208284010152600060207fffffffffffffffffffffffffffffffffffffffffffffffffffffffffffffffe0601f840116840101905092915050565b60208082528181018390526000906040808401600586901b8501820187855b888110156120f2577fffffffffffffffffffffffffffffffffffffffffffffffffffffffffffffffc088840301845281357fffffffffffffffffffffffffffffffffffffffffffffffffffffffffffffffa18b360301811261204257600080fd5b8a01606063ffffffff612054836118f7565b16855261ffff61206589840161193a565b1688860152868201357fffffffffffffffffffffffffffffffffffffffffffffffffffffffffffffffe183360301811261209e57600080fd5b90910187810191903567ffffffffffffffff8111156120bc57600080fd5b8036038313156120cb57600080fd5b81888701526120dd8287018285611f79565b96890196955050509186019150600101611fe1565b509098975050505050505050565b6000808585111561211057600080fd5b8386111561211d57600080fd5b5050820193919092039150565b6000845161213c81846020890161197f565b8201838582376000930192835250909392505050565b602081526000610ad0602083018486611f79565b6000806040838503121561217957600080fd5b823561192c816117c2565b7fffff00000000000000000000000000000000000000000000000000000000000081358181169160028510156121c45780818660020360031b1b83161692505b505092915050565b6040815263ffffffff8351166040820152602083015160608201526000604084015160a0608084015261220260e08401826119a3565b905060608501517fffffffffffffffffffffffffffffffffffffffffffffffffffffffffffffffc08483030160a085015261223d82826119a3565b60809690960151151560c085015250505073ffffffffffffffffffffffffffffffffffffffff9190911660209091015290565b60006040828403121561228257600080fd5b6040516040810181811067ffffffffffffffff821117156122a5576122a5611d8b565b604052825181526020928301519281019290925250919050565b6000604082840312156122d157600080fd5b611a008383612270565b6000608082840312156122ed57600080fd5b6040516060810167ffffffffffffffff828210818311171561231157612311611d8b565b816040528451835260208501519150808216821461232e57600080fd5b5060208201526123418460408501612270565b60408201529392505050565b60006020828403121561235f57600080fd5b8151611a0081611a07565b60008251611d0181846020870161197f56fea2646970667358221220f055afc5e5289ce18aee999f209cd32462ac39f91962a722a7801947dd7deee664736f6c63430008140033",
  "devdoc": {
    "kind": "dev",
    "methods": {
      "allowInitializePath((uint32,bytes32,uint64))": {
        "details": "This indicates to the endpoint that the OApp has enabled msgs for this particular path to be received.This defaults to assuming if a peer has been set, its initialized. Can be overridden by the OApp if there is other logic to determine this.",
        "params": {
          "origin": "The origin information containing the source endpoint and sender address."
        },
        "returns": {
          "_0": "Whether the path has been initialized."
        }
      },
      "combineOptions(uint32,uint16,bytes)": {
        "details": "If there is an enforced lzReceive option: - {gasLimit: 200k, msg.value: 1 ether} AND a caller supplies a lzReceive option: {gasLimit: 100k, msg.value: 0.5 ether} - The resulting options will be {gasLimit: 300k, msg.value: 1.5 ether} when the message is executed on the remote lzReceive() function.This presence of duplicated options is handled off-chain in the verifier/executor.",
        "params": {
          "_eid": "The endpoint ID.",
          "_extraOptions": "Additional options passed by the caller.",
          "_msgType": "The OAPP message type."
        },
        "returns": {
          "_0": "options The combination of caller specified options AND enforced options."
        }
      },
      "composeMsgSender()": {
        "details": "Applications can optionally choose to implement a separate composeMsg sender that is NOT the bridging layer.The default sender IS the OApp implementer.",
        "returns": {
          "sender": "The address responsible for 'sending' composeMsg's to the Endpoint."
        }
      },
      "lzReceive((uint32,bytes32,uint64),bytes32,bytes,address,bytes)": {
        "details": "Entry point for receiving messages or packets from the endpoint.Entry point for receiving msg/packet from the LayerZero endpoint.",
        "params": {
          "_executor": "The address of the executor for the received message.",
          "_extraData": "Additional arbitrary data provided by the corresponding executor.",
          "_guid": "The unique identifier for the received LayerZero message.",
          "_message": "The payload of the received message.",
          "_origin": "The origin information containing the source endpoint and sender address.  - srcEid: The source chain endpoint ID.  - sender: The sender address on the src chain.  - nonce: The nonce of the message."
        }
      },
      "nextNonce(uint32,bytes32)": {
        "details": "_srcEid The source endpoint ID._sender The sender address.The path nonce starts from 1. If 0 is returned it means that there is NO nonce ordered enforcement.Is required by the off-chain executor to determine the OApp expects msg execution is ordered.This is also enforced by the OApp.By default this is NOT enabled. ie. nextNonce is hardcoded to return 0.",
        "returns": {
          "nonce": "The next nonce."
        }
      },
      "oAppVersion()": {
        "returns": {
          "receiverVersion": "The version of the OAppReceiver.sol implementation.",
          "senderVersion": "The version of the OAppSender.sol implementation."
        }
      },
      "owner()": {
        "details": "Returns the address of the current owner."
      },
      "renounceOwnership()": {
        "details": "Leaves the contract without owner. It will not be possible to call `onlyOwner` functions. Can only be called by the current owner. NOTE: Renouncing ownership will leave the contract without an owner, thereby disabling any functionality that is only available to the owner."
      },
      "setDelegate(address)": {
        "details": "Only the owner/admin of the OApp can call this function.Provides the ability for a delegate to set configs, on behalf of the OApp, directly on the Endpoint contract.",
        "params": {
          "_delegate": "The address of the delegate to be set."
        }
      },
      "setEnforcedOptions((uint32,uint16,bytes)[])": {
        "details": "Sets the enforced options for specific endpoint and message type combinations.Only the owner/admin of the OApp can call this function.Provides a way for the OApp to enforce things like paying for PreCrime, AND/OR minimum dst lzReceive gas amounts etc.These enforced options can vary as the potential options/execution on the remote may differ as per the msgType. eg. Amount of lzReceive() gas necessary to deliver a lzCompose() message adds overhead you dont want to pay if you are only making a standard LayerZero message ie. lzReceive() WITHOUT sendCompose().",
        "params": {
          "_enforcedOptions": "An array of EnforcedOptionParam structures specifying enforced options."
        }
      },
      "setPeer(uint32,bytes32)": {
        "details": "Only the owner/admin of the OApp can call this function.Indicates that the peer is trusted to send LayerZero messages to this OApp.Set this to bytes32(0) to remove the peer address.Peer is a bytes32 to accommodate non-evm chains.",
        "params": {
          "_eid": "The endpoint ID.",
          "_peer": "The address of the peer to be associated with the corresponding endpoint."
        }
      },
      "transferOwnership(address)": {
        "details": "Transfers ownership of the contract to a new account (`newOwner`). Can only be called by the current owner."
      }
    },
    "version": 1
  },
  "userdoc": {
    "kind": "user",
    "methods": {
      "allowInitializePath((uint32,bytes32,uint64))": {
        "notice": "Checks if the path initialization is allowed based on the provided origin."
      },
      "combineOptions(uint32,uint16,bytes)": {
        "notice": "Combines options for a given endpoint and message type."
      },
      "composeMsgSender()": {
        "notice": "Retrieves the address responsible for 'sending' composeMsg's to the Endpoint."
      },
      "endpoint()": {
        "notice": "Retrieves the LayerZero endpoint associated with the OApp."
      },
      "nextNonce(uint32,bytes32)": {
        "notice": "Retrieves the next nonce for a given source endpoint and sender address."
      },
      "oAppVersion()": {
        "notice": "Retrieves the OApp version information."
      },
      "peers(uint32)": {
        "notice": "Retrieves the peer (OApp) associated with a corresponding endpoint."
      },
      "setDelegate(address)": {
        "notice": "Sets the delegate address for the OApp."
      },
      "setPeer(uint32,bytes32)": {
        "notice": "Sets the peer address (OApp instance) for a corresponding endpoint."
      }
    },
    "version": 1
  },
  "storageLayout": {
    "storage": [
      {
        "astId": 1498,
        "contract": "contracts/ERC721/BridgeGateway.sol:BridgeGateway",
        "label": "_owner",
        "offset": 0,
        "slot": "0",
        "type": "t_address"
      },
      {
        "astId": 64,
        "contract": "contracts/ERC721/BridgeGateway.sol:BridgeGateway",
        "label": "peers",
        "offset": 0,
        "slot": "1",
        "type": "t_mapping(t_uint32,t_bytes32)"
      },
      {
        "astId": 630,
        "contract": "contracts/ERC721/BridgeGateway.sol:BridgeGateway",
        "label": "enforcedOptions",
        "offset": 0,
        "slot": "2",
        "type": "t_mapping(t_uint32,t_mapping(t_uint16,t_bytes_storage))"
      }
    ],
    "types": {
      "t_address": {
        "encoding": "inplace",
        "label": "address",
        "numberOfBytes": "20"
      },
      "t_bytes32": {
        "encoding": "inplace",
        "label": "bytes32",
        "numberOfBytes": "32"
      },
      "t_bytes_storage": {
        "encoding": "bytes",
        "label": "bytes",
        "numberOfBytes": "32"
      },
      "t_mapping(t_uint16,t_bytes_storage)": {
        "encoding": "mapping",
        "key": "t_uint16",
        "label": "mapping(uint16 => bytes)",
        "numberOfBytes": "32",
        "value": "t_bytes_storage"
      },
      "t_mapping(t_uint32,t_bytes32)": {
        "encoding": "mapping",
        "key": "t_uint32",
        "label": "mapping(uint32 => bytes32)",
        "numberOfBytes": "32",
        "value": "t_bytes32"
      },
      "t_mapping(t_uint32,t_mapping(t_uint16,t_bytes_storage))": {
        "encoding": "mapping",
        "key": "t_uint32",
        "label": "mapping(uint32 => mapping(uint16 => bytes))",
        "numberOfBytes": "32",
        "value": "t_mapping(t_uint16,t_bytes_storage)"
      },
      "t_uint16": {
        "encoding": "inplace",
        "label": "uint16",
        "numberOfBytes": "2"
      },
      "t_uint32": {
        "encoding": "inplace",
        "label": "uint32",
        "numberOfBytes": "4"
      }
    }
  }
}